{
  "address": "0x2ABD0b99D79c4cB6c43D1C221B1592EbE0925Ebf",
  "abi": [
    {
      "inputs": [],
      "stateMutability": "nonpayable",
      "type": "constructor"
    },
    {
      "anonymous": false,
      "inputs": [
        {
          "indexed": false,
          "internalType": "string",
          "name": "username",
          "type": "string"
        },
        {
          "indexed": false,
          "internalType": "string",
          "name": "goalDescription",
          "type": "string"
        },
        {
          "indexed": false,
          "internalType": "uint256",
          "name": "goalAmount",
          "type": "uint256"
        }
      ],
      "name": "DonationGoalCreated",
      "type": "event"
    },
    {
      "anonymous": false,
      "inputs": [
        {
          "indexed": false,
          "internalType": "string",
          "name": "username",
          "type": "string"
        },
        {
          "indexed": false,
          "internalType": "string",
          "name": "donorName",
          "type": "string"
        },
        {
          "indexed": false,
          "internalType": "uint256",
          "name": "amount",
          "type": "uint256"
        },
        {
          "indexed": false,
          "internalType": "string",
          "name": "message",
          "type": "string"
        }
      ],
      "name": "DonationMade",
      "type": "event"
    },
    {
      "anonymous": false,
      "inputs": [
        {
          "indexed": false,
          "internalType": "string",
          "name": "username",
          "type": "string"
        },
        {
          "indexed": false,
          "internalType": "uint256",
          "name": "amount",
          "type": "uint256"
        }
      ],
      "name": "DonationWithdrawn",
      "type": "event"
    },
    {
      "anonymous": false,
      "inputs": [
        {
          "indexed": false,
          "internalType": "uint256",
          "name": "feePercentage",
          "type": "uint256"
        },
        {
          "indexed": false,
          "internalType": "uint256",
          "name": "minimumRequiredFeeUSD",
          "type": "uint256"
        }
      ],
      "name": "FeesUpdated",
      "type": "event"
    },
    {
      "anonymous": false,
      "inputs": [
        {
          "indexed": true,
          "internalType": "address",
          "name": "previousOwner",
          "type": "address"
        },
        {
          "indexed": true,
          "internalType": "address",
          "name": "newOwner",
          "type": "address"
        }
      ],
      "name": "OwnershipTransferred",
      "type": "event"
    },
    {
      "anonymous": false,
      "inputs": [
        {
          "indexed": false,
          "internalType": "string",
          "name": "username",
          "type": "string"
        }
      ],
      "name": "ProfileUpdated",
      "type": "event"
    },
    {
      "inputs": [
        {
          "internalType": "uint256",
          "name": "usdAmount",
          "type": "uint256"
        }
      ],
      "name": "_convertUSDToETH",
      "outputs": [
        {
          "internalType": "uint256",
          "name": "",
          "type": "uint256"
        }
      ],
      "stateMutability": "pure",
      "type": "function"
    },
    {
      "inputs": [
        {
          "internalType": "string",
          "name": "username",
          "type": "string"
        },
        {
          "internalType": "string",
          "name": "description",
          "type": "string"
        },
        {
          "internalType": "string",
          "name": "profilePictureURL",
          "type": "string"
        },
        {
          "internalType": "uint256",
          "name": "minDonationUSD",
          "type": "uint256"
        }
      ],
      "name": "createProfile",
      "outputs": [],
      "stateMutability": "nonpayable",
      "type": "function"
    },
    {
      "inputs": [],
      "name": "feePercentage",
      "outputs": [
        {
          "internalType": "uint256",
          "name": "",
          "type": "uint256"
        }
      ],
      "stateMutability": "view",
      "type": "function"
    },
    {
      "inputs": [
        {
          "internalType": "string",
          "name": "username",
          "type": "string"
        }
      ],
      "name": "getAllDonations",
      "outputs": [
        {
          "components": [
            {
              "internalType": "string",
              "name": "donorName",
              "type": "string"
            },
            {
              "internalType": "string",
              "name": "message",
              "type": "string"
            },
            {
              "internalType": "uint256",
              "name": "amount",
              "type": "uint256"
            },
            {
              "internalType": "uint256",
              "name": "timestamp",
              "type": "uint256"
            }
          ],
          "internalType": "struct CryptoPatrons.Donation[]",
          "name": "",
          "type": "tuple[]"
        }
      ],
      "stateMutability": "view",
      "type": "function"
    },
    {
      "inputs": [],
      "name": "getAllProfiles",
      "outputs": [
        {
          "components": [
            {
              "internalType": "string",
              "name": "username",
              "type": "string"
            },
            {
              "internalType": "string",
              "name": "description",
              "type": "string"
            },
            {
              "internalType": "string",
              "name": "profilePictureURL",
              "type": "string"
            },
            {
              "internalType": "uint256",
              "name": "minDonationUSD",
              "type": "uint256"
            }
          ],
          "internalType": "struct CryptoPatrons.CreatorProfile[]",
          "name": "",
          "type": "tuple[]"
        }
      ],
      "stateMutability": "view",
      "type": "function"
    },
    {
      "inputs": [
        {
          "internalType": "string",
          "name": "username",
          "type": "string"
        }
      ],
      "name": "getDonationsAmount",
      "outputs": [
        {
          "internalType": "uint256",
          "name": "",
          "type": "uint256"
        }
      ],
      "stateMutability": "view",
      "type": "function"
    },
    {
      "inputs": [],
      "name": "getLatestPrice",
      "outputs": [
        {
          "internalType": "int256",
          "name": "",
          "type": "int256"
        }
      ],
      "stateMutability": "pure",
      "type": "function"
    },
    {
      "inputs": [
        {
          "internalType": "string",
          "name": "username",
          "type": "string"
        }
      ],
      "name": "getProfile",
      "outputs": [
        {
          "components": [
            {
              "internalType": "string",
              "name": "username",
              "type": "string"
            },
            {
              "internalType": "string",
              "name": "description",
              "type": "string"
            },
            {
              "internalType": "string",
              "name": "profilePictureURL",
              "type": "string"
            },
            {
              "internalType": "uint256",
              "name": "minDonationUSD",
              "type": "uint256"
            }
          ],
          "internalType": "struct CryptoPatrons.CreatorProfile",
          "name": "",
          "type": "tuple"
        }
      ],
      "stateMutability": "view",
      "type": "function"
    },
    {
      "inputs": [
        {
          "internalType": "string",
          "name": "username",
          "type": "string"
        }
      ],
      "name": "getProfileOwner",
      "outputs": [
        {
          "internalType": "address",
          "name": "",
          "type": "address"
        }
      ],
      "stateMutability": "view",
      "type": "function"
    },
    {
      "inputs": [
        {
          "internalType": "string",
          "name": "username",
          "type": "string"
        },
        {
          "internalType": "string",
          "name": "donorName",
          "type": "string"
        },
        {
          "internalType": "string",
          "name": "message",
          "type": "string"
        }
      ],
      "name": "makeDonation",
      "outputs": [],
      "stateMutability": "payable",
      "type": "function"
    },
    {
      "inputs": [],
      "name": "minimumRequiredFeeUSD",
      "outputs": [
        {
          "internalType": "uint256",
          "name": "",
          "type": "uint256"
        }
      ],
      "stateMutability": "view",
      "type": "function"
    },
    {
      "inputs": [],
      "name": "owner",
      "outputs": [
        {
          "internalType": "address",
          "name": "",
          "type": "address"
        }
      ],
      "stateMutability": "view",
      "type": "function"
    },
    {
      "inputs": [],
      "name": "renounceOwnership",
      "outputs": [],
      "stateMutability": "nonpayable",
      "type": "function"
    },
    {
      "inputs": [
        {
          "internalType": "address",
          "name": "newOwner",
          "type": "address"
        }
      ],
      "name": "transferOwnership",
      "outputs": [],
      "stateMutability": "nonpayable",
      "type": "function"
    },
    {
      "inputs": [
        {
          "internalType": "uint256",
          "name": "_feePercentage",
          "type": "uint256"
        },
        {
          "internalType": "uint256",
          "name": "_minimumRequiredFeeUSD",
          "type": "uint256"
        }
      ],
      "name": "updateFeeSettings",
      "outputs": [],
      "stateMutability": "nonpayable",
      "type": "function"
    },
    {
      "inputs": [
        {
          "internalType": "string",
          "name": "username",
          "type": "string"
        },
        {
          "internalType": "string",
          "name": "description",
          "type": "string"
        },
        {
          "internalType": "string",
          "name": "profilePictureURL",
          "type": "string"
        },
        {
          "internalType": "uint256",
          "name": "minDonationUSD",
          "type": "uint256"
        }
      ],
      "name": "updateProfile",
      "outputs": [],
      "stateMutability": "nonpayable",
      "type": "function"
    },
    {
      "inputs": [
        {
          "internalType": "string",
          "name": "username",
          "type": "string"
        }
      ],
      "name": "withdrawDonations",
      "outputs": [],
      "stateMutability": "nonpayable",
      "type": "function"
    },
    {
      "inputs": [],
      "name": "withdrawFees",
      "outputs": [],
      "stateMutability": "nonpayable",
      "type": "function"
    }
  ],
  "transactionHash": "0x3e625f25b07ad7860c3ffdd92f69c4a804a2bce62b3a4b0fc9f5690027cfe63a",
  "args": [],
  "numDeployments": 11,
  "solcInputHash": "72a5b856b9b92b8fce491a184c1112d3",
  "bytecode": "0x608060405260006007556000600855600060095534801561001f57600080fd5b5061002933610054565b600180546001600160a01b031916735f4ec3df9cbd43714fe2740f5e3616155c5b84191790556100a4565b600080546001600160a01b038381166001600160a01b0319831681178455604051919092169283917f8be0079c531659141344cd1fd0a4f28419497f9722a3daafe3b4186f6b6457e09190a35050565b611b8f806100b36000396000f3fe6080604052600436106101095760003560e01c806393ea556d11610095578063d498455d11610064578063d498455d146102b3578063edc27dd6146102e0578063f2fde38b146102f3578063f4a4adf014610313578063f6a77e4f1461033357600080fd5b806393ea556d1461023d578063a001ecdd1461025d578063d30e1c9c14610273578063d44bad651461029357600080fd5b8063546f8203116100dc578063546f82031461019d5780636af1eed9146101bd578063715018a6146101e15780638da5cb5b146101f65780638e15f4731461022857600080fd5b80630b1fe7841461010e5780630de9869314610139578063476343ee146101665780634b04e7cd1461017d575b600080fd5b34801561011a57600080fd5b50610123610353565b60405161013091906114e2565b60405180910390f35b34801561014557600080fd5b506101596101543660046115e7565b610645565b6040516101309190611624565b34801561017257600080fd5b5061017b6108db565b005b34801561018957600080fd5b5061017b61019836600461163e565b61096e565b3480156101a957600080fd5b5061017b6101b8366004611660565b6109be565b3480156101c957600080fd5b506101d360085481565b604051908152602001610130565b3480156101ed57600080fd5b5061017b610b0f565b34801561020257600080fd5b506000546001600160a01b03165b6040516001600160a01b039091168152602001610130565b34801561023457600080fd5b50610d806101d3565b34801561024957600080fd5b506101d36102583660046115e7565b610b23565b34801561026957600080fd5b506101d360075481565b34801561027f57600080fd5b506101d361028e3660046116f0565b610b4b565b34801561029f57600080fd5b506102106102ae3660046115e7565b610b79565b3480156102bf57600080fd5b506102d36102ce3660046115e7565b610baa565b6040516101309190611709565b61017b6102ee3660046117a4565b610d5f565b3480156102ff57600080fd5b5061017b61030e36600461182c565b610fd4565b34801561031f57600080fd5b5061017b61032e366004611660565b61104d565b34801561033f57600080fd5b5061017b61034e3660046115e7565b6111f9565b6006546060906000600a8211610369578161036c565b600a5b905060008167ffffffffffffffff81111561038957610389611544565b6040519080825280602002602001820160405280156103e557816020015b6103d26040518060800160405280606081526020016060815260200160608152602001600081525090565b8152602001906001900390816103a75790505b50905060005b8281101561063d57600260066001610403848861186b565b61040d919061186b565b8154811061041d5761041d611884565b9060005260206000200160405161043491906118d4565b908152602001604051809103902060405180608001604052908160008201805461045d9061189a565b80601f01602080910402602001604051908101604052809291908181526020018280546104899061189a565b80156104d65780601f106104ab576101008083540402835291602001916104d6565b820191906000526020600020905b8154815290600101906020018083116104b957829003601f168201915b505050505081526020016001820180546104ef9061189a565b80601f016020809104026020016040519081016040528092919081815260200182805461051b9061189a565b80156105685780601f1061053d57610100808354040283529160200191610568565b820191906000526020600020905b81548152906001019060200180831161054b57829003601f168201915b505050505081526020016002820180546105819061189a565b80601f01602080910402602001604051908101604052809291908181526020018280546105ad9061189a565b80156105fa5780601f106105cf576101008083540402835291602001916105fa565b820191906000526020600020905b8154815290600101906020018083116105dd57829003601f168201915b5050505050815260200160038201548152505082828151811061061f5761061f611884565b602002602001018190525080806106359061194a565b9150506103eb565b509392505050565b6106706040518060800160405280606081526020016060815260200160608152602001600081525090565b6002826040516106809190611963565b9081526020016040518091039020600201805461069c9061189a565b90506000036106eb5760405162461bcd60e51b8152602060048201526016602482015275141c9bd99a5b1948191bd95cc81b9bdd08195e1a5cdd60521b60448201526064015b60405180910390fd5b6002826040516106fb9190611963565b90815260200160405180910390206040518060800160405290816000820180546107249061189a565b80601f01602080910402602001604051908101604052809291908181526020018280546107509061189a565b801561079d5780601f106107725761010080835404028352916020019161079d565b820191906000526020600020905b81548152906001019060200180831161078057829003601f168201915b505050505081526020016001820180546107b69061189a565b80601f01602080910402602001604051908101604052809291908181526020018280546107e29061189a565b801561082f5780601f106108045761010080835404028352916020019161082f565b820191906000526020600020905b81548152906001019060200180831161081257829003601f168201915b505050505081526020016002820180546108489061189a565b80601f01602080910402602001604051908101604052809291908181526020018280546108749061189a565b80156108c15780601f10610896576101008083540402835291602001916108c1565b820191906000526020600020905b8154815290600101906020018083116108a457829003601f168201915b505050505081526020016003820154815250509050919050565b6108e3611389565b60006009541161092b5760405162461bcd60e51b81526020600482015260136024820152724e6f206665657320746f20776974686472617760681b60448201526064016106e2565b600080546009546040516001600160a01b039092169281156108fc029290818181858888f19350505050158015610966573d6000803e3d6000fd5b506000600955565b610976611389565b6007829055600881905560408051838152602081018390527f5c6323bf1c2d7aaea2c091a4751c1c87af7f2864650c336507a77d0557af37a191015b60405180910390a15050565b336001600160a01b03166004856040516109d89190611963565b908152604051908190036020019020546001600160a01b031614610a4c5760405162461bcd60e51b815260206004820152602560248201527f4e6f7420617574686f72697a656420746f2075706461746520746869732070726044820152646f66696c6560d81b60648201526084016106e2565b604051806080016040528085815260200184815260200183815260200182815250600285604051610a7d9190611963565b90815260405190819003602001902081518190610a9a90826119ce565b5060208201516001820190610aaf90826119ce565b5060408201516002820190610ac490826119ce565b50606082015181600301559050507f62ef9773503de4dcf411c8f6c4968707609c4fba31ea026b68cf87d942d2ff0484604051610b019190611a8e565b60405180910390a150505050565b610b17611389565b610b2160006113e3565b565b6000600582604051610b359190611963565b9081526020016040518091039020549050919050565b6000610d8080600081610b6686670de0b6b3a7640000611aa1565b610b709190611ab8565b95945050505050565b6000600482604051610b8b9190611963565b908152604051908190036020019020546001600160a01b031692915050565b6060600382604051610bbc9190611963565b9081526020016040518091039020805480602002602001604051908101604052809291908181526020016000905b82821015610d545783829060005260206000209060040201604051806080016040529081600082018054610c1d9061189a565b80601f0160208091040260200160405190810160405280929190818152602001828054610c499061189a565b8015610c965780601f10610c6b57610100808354040283529160200191610c96565b820191906000526020600020905b815481529060010190602001808311610c7957829003601f168201915b50505050508152602001600182018054610caf9061189a565b80601f0160208091040260200160405190810160405280929190818152602001828054610cdb9061189a565b8015610d285780601f10610cfd57610100808354040283529160200191610d28565b820191906000526020600020905b815481529060010190602001808311610d0b57829003601f168201915b505050505081526020016002820154815260200160038201548152505081526020019060010190610bea565b505050509050919050565b6000610d8b600285604051610d749190611963565b908152602001604051809103902060030154610b4b565b905080341015610de85760405162461bcd60e51b815260206004820152602260248201527f446f6e6174696f6e2062656c6f77206d696e696d756d20726571756972656d656044820152611b9d60f21b60648201526084016106e2565b6000606460075434610dfa9190611aa1565b610e049190611ab8565b90506000610e13600854610b4b565b905080821015610e21578091505b8160096000828254610e339190611ada565b90915550839050610e44833461186b565b1015610eaf5760405162461bcd60e51b815260206004820152603460248201527f4e657420646f6e6174696f6e20616674657220666565732069732062656c6f77604482015273081b5a5b9a5b5d5b481c995c5d5a5c995b595b9d60621b60648201526084016106e2565b600386604051610ebf9190611963565b908152602001604051809103902060405180608001604052808781526020018681526020018434610ef0919061186b565b8152426020918201528254600181018455600093845292208151919260040201908190610f1d90826119ce565b5060208201516001820190610f3290826119ce565b5060408201516002820155606090910151600390910155610f53823461186b565b600587604051610f639190611963565b90815260200160405180910390206000828254610f809190611ada565b909155507f5e0c1190239814ed6713490057a0d89ee21a51764602eff20db26dd921871d8e90508686610fb3853461186b565b87604051610fc49493929190611aed565b60405180910390a1505050505050565b610fdc611389565b6001600160a01b0381166110415760405162461bcd60e51b815260206004820152602660248201527f4f776e61626c653a206e6577206f776e657220697320746865207a65726f206160448201526564647265737360d01b60648201526084016106e2565b61104a816113e3565b50565b60006001600160a01b03166004856040516110689190611963565b908152604051908190036020019020546001600160a01b0316146110c75760405162461bcd60e51b81526020600482015260166024820152752ab9b2b93730b6b29030b63932b0b23c903a30b5b2b760511b60448201526064016106e2565b6040518060800160405280858152602001848152602001838152602001828152506002856040516110f89190611963565b9081526040519081900360200190208151819061111590826119ce565b506020820151600182019061112a90826119ce565b506040820151600282019061113f90826119ce565b50606082015181600301559050503360048560405161115e9190611963565b90815260405190819003602001902080546001600160a01b03929092166001600160a01b0319909216919091179055600680546001810182556000919091527ff652222313e28459528d920b65115c16c04f3efc82aaedc97be59f3f377c0d3f016111c985826119ce565b507f62ef9773503de4dcf411c8f6c4968707609c4fba31ea026b68cf87d942d2ff0484604051610b019190611a8e565b336001600160a01b03166004826040516112139190611963565b908152604051908190036020019020546001600160a01b0316146112935760405162461bcd60e51b815260206004820152603160248201527f4e6f7420617574686f72697a656420746f2077697468647261772066756e647360448201527020666f7220746869732070726f66696c6560781b60648201526084016106e2565b60006005826040516112a59190611963565b9081526020016040518091039020549050600081116113065760405162461bcd60e51b815260206004820152601860248201527f4e6f20646f6e6174696f6e7320746f207769746864726177000000000000000060448201526064016106e2565b604051339082156108fc029083906000818181858888f19350505050158015611333573d6000803e3d6000fd5b5060006005836040516113469190611963565b9081526020016040518091039020819055507f4467463b50ded51827ecf2a001448363831d6be8bd8d6d98e593abb1f0d2cb1e82826040516109b2929190611b37565b6000546001600160a01b03163314610b215760405162461bcd60e51b815260206004820181905260248201527f4f776e61626c653a2063616c6c6572206973206e6f7420746865206f776e657260448201526064016106e2565b600080546001600160a01b038381166001600160a01b0319831681178455604051919092169283917f8be0079c531659141344cd1fd0a4f28419497f9722a3daafe3b4186f6b6457e09190a35050565b60005b8381101561144e578181015183820152602001611436565b50506000910152565b6000815180845261146f816020860160208601611433565b601f01601f19169290920160200192915050565b60008151608084526114986080850182611457565b9050602083015184820360208601526114b18282611457565b915050604083015184820360408601526114cb8282611457565b915050606083015160608501528091505092915050565b6000602080830181845280855180835260408601915060408160051b870101925083870160005b8281101561153757603f19888603018452611525858351611483565b94509285019290850190600101611509565b5092979650505050505050565b634e487b7160e01b600052604160045260246000fd5b600082601f83011261156b57600080fd5b813567ffffffffffffffff8082111561158657611586611544565b604051601f8301601f19908116603f011681019082821181831017156115ae576115ae611544565b816040528381528660208588010111156115c757600080fd5b836020870160208301376000602085830101528094505050505092915050565b6000602082840312156115f957600080fd5b813567ffffffffffffffff81111561161057600080fd5b61161c8482850161155a565b949350505050565b6020815260006116376020830184611483565b9392505050565b6000806040838503121561165157600080fd5b50508035926020909101359150565b6000806000806080858703121561167657600080fd5b843567ffffffffffffffff8082111561168e57600080fd5b61169a8883890161155a565b955060208701359150808211156116b057600080fd5b6116bc8883890161155a565b945060408701359150808211156116d257600080fd5b506116df8782880161155a565b949793965093946060013593505050565b60006020828403121561170257600080fd5b5035919050565b60006020808301818452808551808352604092508286019150828160051b87010184880160005b8381101561179657603f1989840301855281516080815181865261175682870182611457565b915050888201518582038a87015261176e8282611457565b838a0151878b0152606093840151939096019290925250509386019390860190600101611730565b509098975050505050505050565b6000806000606084860312156117b957600080fd5b833567ffffffffffffffff808211156117d157600080fd5b6117dd8783880161155a565b945060208601359150808211156117f357600080fd5b6117ff8783880161155a565b9350604086013591508082111561181557600080fd5b506118228682870161155a565b9150509250925092565b60006020828403121561183e57600080fd5b81356001600160a01b038116811461163757600080fd5b634e487b7160e01b600052601160045260246000fd5b8181038181111561187e5761187e611855565b92915050565b634e487b7160e01b600052603260045260246000fd5b600181811c908216806118ae57607f821691505b6020821081036118ce57634e487b7160e01b600052602260045260246000fd5b50919050565b60008083546118e28161189a565b600182811680156118fa576001811461190f5761193e565b60ff198416875282151583028701945061193e565b8760005260208060002060005b858110156119355781548a82015290840190820161191c565b50505082870194505b50929695505050505050565b60006001820161195c5761195c611855565b5060010190565b60008251611975818460208701611433565b9190910192915050565b601f8211156119c957600081815260208120601f850160051c810160208610156119a65750805b601f850160051c820191505b818110156119c5578281556001016119b2565b5050505b505050565b815167ffffffffffffffff8111156119e8576119e8611544565b6119fc816119f6845461189a565b8461197f565b602080601f831160018114611a315760008415611a195750858301515b600019600386901b1c1916600185901b1785556119c5565b600085815260208120601f198616915b82811015611a6057888601518255948401946001909101908401611a41565b5085821015611a7e5787850151600019600388901b60f8161c191681555b5050505050600190811b01905550565b6020815260006116376020830184611457565b808202811582820484141761187e5761187e611855565b600082611ad557634e487b7160e01b600052601260045260246000fd5b500490565b8082018082111561187e5761187e611855565b608081526000611b006080830187611457565b8281036020840152611b128187611457565b90508460408401528281036060840152611b2c8185611457565b979650505050505050565b604081526000611b4a6040830185611457565b9050826020830152939250505056fea2646970667358221220dda27d986e3c09dff71020b6b1dd1a1bb7cb6b0c8d23d5bb238ba659a5b91f2264736f6c63430008110033",
  "devdoc": {
    "author": "glebshkut",
    "kind": "dev",
    "methods": {
      "owner()": {
        "details": "Returns the address of the current owner."
      },
      "renounceOwnership()": {
        "details": "Leaves the contract without owner. It will not be possible to call `onlyOwner` functions anymore. Can only be called by the current owner. NOTE: Renouncing ownership will leave the contract without an owner, thereby removing any functionality that is only available to the owner."
      },
      "transferOwnership(address)": {
        "details": "Transfers ownership of the contract to a new account (`newOwner`). Can only be called by the current owner."
      }
    },
    "version": 1
  },
  "userdoc": {
    "kind": "user",
    "methods": {},
    "notice": "A smart contract that allows making donations to creators. It also allows the owner to withdraw the Ether in the contract",
    "version": 1
  },
  "storageLayout": {
    "storage": [
      {
        "astId": 7,
        "contract": "contracts/CryptoPatrons.sol:CryptoPatrons",
        "label": "_owner",
        "offset": 0,
        "slot": "0",
        "type": "t_address"
      },
      {
        "astId": 270,
        "contract": "contracts/CryptoPatrons.sol:CryptoPatrons",
        "label": "priceFeed",
        "offset": 0,
        "slot": "1",
        "type": "t_contract(AggregatorV3Interface)258"
      },
      {
        "astId": 337,
        "contract": "contracts/CryptoPatrons.sol:CryptoPatrons",
        "label": "_profiles",
        "offset": 0,
        "slot": "2",
        "type": "t_mapping(t_string_memory_ptr,t_struct(CreatorProfile)289_storage)"
      },
      {
        "astId": 343,
        "contract": "contracts/CryptoPatrons.sol:CryptoPatrons",
        "label": "_donations",
        "offset": 0,
        "slot": "3",
        "type": "t_mapping(t_string_memory_ptr,t_array(t_struct(Donation)298_storage)dyn_storage)"
      },
      {
        "astId": 347,
        "contract": "contracts/CryptoPatrons.sol:CryptoPatrons",
        "label": "_profileOwners",
        "offset": 0,
        "slot": "4",
        "type": "t_mapping(t_string_memory_ptr,t_address)"
      },
      {
        "astId": 351,
        "contract": "contracts/CryptoPatrons.sol:CryptoPatrons",
        "label": "_donationsAmount",
        "offset": 0,
        "slot": "5",
        "type": "t_mapping(t_string_memory_ptr,t_uint256)"
      },
      {
        "astId": 354,
        "contract": "contracts/CryptoPatrons.sol:CryptoPatrons",
        "label": "_profileUsernames",
        "offset": 0,
        "slot": "6",
        "type": "t_array(t_string_storage)dyn_storage"
      },
      {
        "astId": 357,
        "contract": "contracts/CryptoPatrons.sol:CryptoPatrons",
        "label": "feePercentage",
        "offset": 0,
        "slot": "7",
        "type": "t_uint256"
      },
      {
        "astId": 360,
        "contract": "contracts/CryptoPatrons.sol:CryptoPatrons",
        "label": "minimumRequiredFeeUSD",
        "offset": 0,
        "slot": "8",
        "type": "t_uint256"
      },
      {
        "astId": 363,
        "contract": "contracts/CryptoPatrons.sol:CryptoPatrons",
        "label": "collectedFees",
        "offset": 0,
        "slot": "9",
        "type": "t_uint256"
      }
    ],
    "types": {
      "t_address": {
        "encoding": "inplace",
        "label": "address",
        "numberOfBytes": "20"
      },
      "t_array(t_string_storage)dyn_storage": {
        "base": "t_string_storage",
        "encoding": "dynamic_array",
        "label": "string[]",
        "numberOfBytes": "32"
      },
      "t_array(t_struct(Donation)298_storage)dyn_storage": {
        "base": "t_struct(Donation)298_storage",
        "encoding": "dynamic_array",
        "label": "struct CryptoPatrons.Donation[]",
        "numberOfBytes": "32"
      },
      "t_contract(AggregatorV3Interface)258": {
        "encoding": "inplace",
        "label": "contract AggregatorV3Interface",
        "numberOfBytes": "20"
      },
      "t_mapping(t_string_memory_ptr,t_address)": {
        "encoding": "mapping",
        "key": "t_string_memory_ptr",
        "label": "mapping(string => address)",
        "numberOfBytes": "32",
        "value": "t_address"
      },
      "t_mapping(t_string_memory_ptr,t_array(t_struct(Donation)298_storage)dyn_storage)": {
        "encoding": "mapping",
        "key": "t_string_memory_ptr",
        "label": "mapping(string => struct CryptoPatrons.Donation[])",
        "numberOfBytes": "32",
        "value": "t_array(t_struct(Donation)298_storage)dyn_storage"
      },
      "t_mapping(t_string_memory_ptr,t_struct(CreatorProfile)289_storage)": {
        "encoding": "mapping",
        "key": "t_string_memory_ptr",
        "label": "mapping(string => struct CryptoPatrons.CreatorProfile)",
        "numberOfBytes": "32",
        "value": "t_struct(CreatorProfile)289_storage"
      },
      "t_mapping(t_string_memory_ptr,t_uint256)": {
        "encoding": "mapping",
        "key": "t_string_memory_ptr",
        "label": "mapping(string => uint256)",
        "numberOfBytes": "32",
        "value": "t_uint256"
      },
      "t_string_memory_ptr": {
        "encoding": "bytes",
        "label": "string",
        "numberOfBytes": "32"
      },
      "t_string_storage": {
        "encoding": "bytes",
        "label": "string",
        "numberOfBytes": "32"
      },
      "t_struct(CreatorProfile)289_storage": {
        "encoding": "inplace",
        "label": "struct CryptoPatrons.CreatorProfile",
        "members": [
          {
            "astId": 282,
            "contract": "contracts/CryptoPatrons.sol:CryptoPatrons",
            "label": "username",
            "offset": 0,
            "slot": "0",
            "type": "t_string_storage"
          },
          {
            "astId": 284,
            "contract": "contracts/CryptoPatrons.sol:CryptoPatrons",
            "label": "description",
            "offset": 0,
            "slot": "1",
            "type": "t_string_storage"
          },
          {
            "astId": 286,
            "contract": "contracts/CryptoPatrons.sol:CryptoPatrons",
            "label": "profilePictureURL",
            "offset": 0,
            "slot": "2",
            "type": "t_string_storage"
          },
          {
            "astId": 288,
            "contract": "contracts/CryptoPatrons.sol:CryptoPatrons",
            "label": "minDonationUSD",
            "offset": 0,
            "slot": "3",
            "type": "t_uint256"
          }
        ],
        "numberOfBytes": "128"
      },
      "t_struct(Donation)298_storage": {
        "encoding": "inplace",
        "label": "struct CryptoPatrons.Donation",
        "members": [
          {
            "astId": 291,
            "contract": "contracts/CryptoPatrons.sol:CryptoPatrons",
            "label": "donorName",
            "offset": 0,
            "slot": "0",
            "type": "t_string_storage"
          },
          {
            "astId": 293,
            "contract": "contracts/CryptoPatrons.sol:CryptoPatrons",
            "label": "message",
            "offset": 0,
            "slot": "1",
            "type": "t_string_storage"
          },
          {
            "astId": 295,
            "contract": "contracts/CryptoPatrons.sol:CryptoPatrons",
            "label": "amount",
            "offset": 0,
            "slot": "2",
            "type": "t_uint256"
          },
          {
            "astId": 297,
            "contract": "contracts/CryptoPatrons.sol:CryptoPatrons",
            "label": "timestamp",
            "offset": 0,
            "slot": "3",
            "type": "t_uint256"
          }
        ],
        "numberOfBytes": "128"
      },
      "t_uint256": {
        "encoding": "inplace",
        "label": "uint256",
        "numberOfBytes": "32"
      }
    }
  }
}