{
  "address": "0x5D8F7Cd72c8c802231d2279ac83D7B0aB495e946",
  "abi": [
    {
      "inputs": [],
      "stateMutability": "nonpayable",
      "type": "constructor"
    },
    {
      "anonymous": false,
      "inputs": [
        {
          "indexed": false,
          "internalType": "string",
          "name": "username",
          "type": "string"
        },
        {
          "indexed": false,
          "internalType": "string",
          "name": "goalDescription",
          "type": "string"
        },
        {
          "indexed": false,
          "internalType": "uint256",
          "name": "goalAmount",
          "type": "uint256"
        }
      ],
      "name": "DonationGoalCreated",
      "type": "event"
    },
    {
      "anonymous": false,
      "inputs": [
        {
          "indexed": false,
          "internalType": "string",
          "name": "username",
          "type": "string"
        },
        {
          "indexed": false,
          "internalType": "string",
          "name": "donorName",
          "type": "string"
        },
        {
          "indexed": false,
          "internalType": "uint256",
          "name": "amount",
          "type": "uint256"
        },
        {
          "indexed": false,
          "internalType": "string",
          "name": "message",
          "type": "string"
        }
      ],
      "name": "DonationMade",
      "type": "event"
    },
    {
      "anonymous": false,
      "inputs": [
        {
          "indexed": false,
          "internalType": "string",
          "name": "username",
          "type": "string"
        },
        {
          "indexed": false,
          "internalType": "uint256",
          "name": "amount",
          "type": "uint256"
        }
      ],
      "name": "DonationWithdrawn",
      "type": "event"
    },
    {
      "anonymous": false,
      "inputs": [
        {
          "indexed": false,
          "internalType": "uint256",
          "name": "feePercentage",
          "type": "uint256"
        },
        {
          "indexed": false,
          "internalType": "uint256",
          "name": "minimumRequiredFeeUSD",
          "type": "uint256"
        }
      ],
      "name": "FeesUpdated",
      "type": "event"
    },
    {
      "anonymous": false,
      "inputs": [
        {
          "indexed": true,
          "internalType": "address",
          "name": "previousOwner",
          "type": "address"
        },
        {
          "indexed": true,
          "internalType": "address",
          "name": "newOwner",
          "type": "address"
        }
      ],
      "name": "OwnershipTransferred",
      "type": "event"
    },
    {
      "anonymous": false,
      "inputs": [
        {
          "indexed": false,
          "internalType": "string",
          "name": "username",
          "type": "string"
        }
      ],
      "name": "ProfileUpdated",
      "type": "event"
    },
    {
      "inputs": [
        {
          "internalType": "uint256",
          "name": "usdAmount",
          "type": "uint256"
        }
      ],
      "name": "_convertUSDToETH",
      "outputs": [
        {
          "internalType": "uint256",
          "name": "",
          "type": "uint256"
        }
      ],
      "stateMutability": "pure",
      "type": "function"
    },
    {
      "inputs": [
        {
          "internalType": "string",
          "name": "username",
          "type": "string"
        },
        {
          "internalType": "string",
          "name": "name",
          "type": "string"
        },
        {
          "internalType": "string",
          "name": "description",
          "type": "string"
        },
        {
          "internalType": "string",
          "name": "profilePictureURL",
          "type": "string"
        },
        {
          "internalType": "uint256",
          "name": "minDonationUSD",
          "type": "uint256"
        }
      ],
      "name": "createProfile",
      "outputs": [],
      "stateMutability": "nonpayable",
      "type": "function"
    },
    {
      "inputs": [],
      "name": "feePercentage",
      "outputs": [
        {
          "internalType": "uint256",
          "name": "",
          "type": "uint256"
        }
      ],
      "stateMutability": "view",
      "type": "function"
    },
    {
      "inputs": [
        {
          "internalType": "string",
          "name": "username",
          "type": "string"
        }
      ],
      "name": "getAllDonations",
      "outputs": [
        {
          "components": [
            {
              "internalType": "string",
              "name": "donorName",
              "type": "string"
            },
            {
              "internalType": "string",
              "name": "message",
              "type": "string"
            },
            {
              "internalType": "uint256",
              "name": "amount",
              "type": "uint256"
            },
            {
              "internalType": "uint256",
              "name": "timestamp",
              "type": "uint256"
            }
          ],
          "internalType": "struct CryptoPatrons.Donation[]",
          "name": "",
          "type": "tuple[]"
        }
      ],
      "stateMutability": "view",
      "type": "function"
    },
    {
      "inputs": [],
      "name": "getAllProfiles",
      "outputs": [
        {
          "components": [
            {
              "internalType": "string",
              "name": "name",
              "type": "string"
            },
            {
              "internalType": "string",
              "name": "username",
              "type": "string"
            },
            {
              "internalType": "string",
              "name": "description",
              "type": "string"
            },
            {
              "internalType": "string",
              "name": "profilePictureURL",
              "type": "string"
            },
            {
              "internalType": "uint256",
              "name": "minDonationUSD",
              "type": "uint256"
            }
          ],
          "internalType": "struct CryptoPatrons.CreatorProfile[]",
          "name": "",
          "type": "tuple[]"
        }
      ],
      "stateMutability": "view",
      "type": "function"
    },
    {
      "inputs": [],
      "name": "getLatestPrice",
      "outputs": [
        {
          "internalType": "int256",
          "name": "",
          "type": "int256"
        }
      ],
      "stateMutability": "pure",
      "type": "function"
    },
    {
      "inputs": [
        {
          "internalType": "string",
          "name": "username",
          "type": "string"
        }
      ],
      "name": "getProfile",
      "outputs": [
        {
          "components": [
            {
              "internalType": "string",
              "name": "name",
              "type": "string"
            },
            {
              "internalType": "string",
              "name": "username",
              "type": "string"
            },
            {
              "internalType": "string",
              "name": "description",
              "type": "string"
            },
            {
              "internalType": "string",
              "name": "profilePictureURL",
              "type": "string"
            },
            {
              "internalType": "uint256",
              "name": "minDonationUSD",
              "type": "uint256"
            }
          ],
          "internalType": "struct CryptoPatrons.CreatorProfile",
          "name": "",
          "type": "tuple"
        }
      ],
      "stateMutability": "view",
      "type": "function"
    },
    {
      "inputs": [
        {
          "internalType": "string",
          "name": "username",
          "type": "string"
        },
        {
          "internalType": "string",
          "name": "donorName",
          "type": "string"
        },
        {
          "internalType": "string",
          "name": "message",
          "type": "string"
        }
      ],
      "name": "makeDonation",
      "outputs": [],
      "stateMutability": "payable",
      "type": "function"
    },
    {
      "inputs": [],
      "name": "minimumRequiredFeeUSD",
      "outputs": [
        {
          "internalType": "uint256",
          "name": "",
          "type": "uint256"
        }
      ],
      "stateMutability": "view",
      "type": "function"
    },
    {
      "inputs": [],
      "name": "owner",
      "outputs": [
        {
          "internalType": "address",
          "name": "",
          "type": "address"
        }
      ],
      "stateMutability": "view",
      "type": "function"
    },
    {
      "inputs": [],
      "name": "renounceOwnership",
      "outputs": [],
      "stateMutability": "nonpayable",
      "type": "function"
    },
    {
      "inputs": [
        {
          "internalType": "address",
          "name": "newOwner",
          "type": "address"
        }
      ],
      "name": "transferOwnership",
      "outputs": [],
      "stateMutability": "nonpayable",
      "type": "function"
    },
    {
      "inputs": [
        {
          "internalType": "uint256",
          "name": "_feePercentage",
          "type": "uint256"
        },
        {
          "internalType": "uint256",
          "name": "_minimumRequiredFeeUSD",
          "type": "uint256"
        }
      ],
      "name": "updateFeeSettings",
      "outputs": [],
      "stateMutability": "nonpayable",
      "type": "function"
    },
    {
      "inputs": [
        {
          "internalType": "string",
          "name": "username",
          "type": "string"
        },
        {
          "internalType": "string",
          "name": "name",
          "type": "string"
        },
        {
          "internalType": "string",
          "name": "description",
          "type": "string"
        },
        {
          "internalType": "string",
          "name": "profilePictureURL",
          "type": "string"
        },
        {
          "internalType": "uint256",
          "name": "minDonationUSD",
          "type": "uint256"
        }
      ],
      "name": "updateProfile",
      "outputs": [],
      "stateMutability": "nonpayable",
      "type": "function"
    },
    {
      "inputs": [
        {
          "internalType": "string",
          "name": "username",
          "type": "string"
        }
      ],
      "name": "withdrawDonations",
      "outputs": [],
      "stateMutability": "nonpayable",
      "type": "function"
    },
    {
      "inputs": [],
      "name": "withdrawFees",
      "outputs": [],
      "stateMutability": "nonpayable",
      "type": "function"
    }
  ],
  "transactionHash": "0x28afbe89fa57f5ac4cdf7b262324abe3195d9268b103a44958900f2c6dc707db",
  "args": [],
  "numDeployments": 3,
  "solcInputHash": "75dfe4d49800bfcd669a4753d8ca2862",
  "bytecode": "0x608060405260006007556000600855600060095534801561001f57600080fd5b5061002933610054565b600180546001600160a01b031916735f4ec3df9cbd43714fe2740f5e3616155c5b84191790556100a4565b600080546001600160a01b038381166001600160a01b0319831681178455604051919092169283917f8be0079c531659141344cd1fd0a4f28419497f9722a3daafe3b4186f6b6457e09190a35050565b611c7c806100b36000396000f3fe6080604052600436106100f35760003560e01c80638e15f4731161008a578063d498455d11610059578063d498455d14610273578063edc27dd6146102a0578063f2fde38b146102b3578063f6a77e4f146102d357600080fd5b80638e15f47314610208578063a001ecdd1461021d578063b7e1706914610233578063d30e1c9c1461025357600080fd5b80636af1eed9116100c65780636af1eed914610187578063715018a6146101ab5780637cfe4053146101c05780638da5cb5b146101e057600080fd5b80630b1fe784146100f85780630de9869314610123578063476343ee146101505780634b04e7cd14610167575b600080fd5b34801561010457600080fd5b5061010d6102f3565b60405161011a91906115aa565b60405180910390f35b34801561012f57600080fd5b5061014361013e3660046116af565b61067e565b60405161011a91906116ec565b34801561015c57600080fd5b506101656109ab565b005b34801561017357600080fd5b50610165610182366004611706565b610a3e565b34801561019357600080fd5b5061019d60085481565b60405190815260200161011a565b3480156101b757600080fd5b50610165610a8e565b3480156101cc57600080fd5b506101656101db366004611728565b610aa2565b3480156101ec57600080fd5b506000546040516001600160a01b03909116815260200161011a565b34801561021457600080fd5b50610d8061019d565b34801561022957600080fd5b5061019d60075481565b34801561023f57600080fd5b5061016561024e366004611728565b610c78565b34801561025f57600080fd5b5061019d61026e3660046117dd565b610dd6565b34801561027f57600080fd5b5061029361028e3660046116af565b610e04565b60405161011a91906117f6565b6101656102ae366004611891565b610fb9565b3480156102bf57600080fd5b506101656102ce366004611919565b61122e565b3480156102df57600080fd5b506101656102ee3660046116af565b6112a7565b6006546060906000600a8211610309578161030c565b600a5b905060008167ffffffffffffffff8111156103295761032961160c565b60405190808252806020026020018201604052801561038c57816020015b6103796040518060a0016040528060608152602001606081526020016060815260200160608152602001600081525090565b8152602001906001900390816103475790505b50905060005b82811015610676576002600660016103aa8488611958565b6103b49190611958565b815481106103c4576103c4611971565b906000526020600020016040516103db91906119c1565b90815260200160405180910390206040518060a001604052908160008201805461040490611987565b80601f016020809104026020016040519081016040528092919081815260200182805461043090611987565b801561047d5780601f106104525761010080835404028352916020019161047d565b820191906000526020600020905b81548152906001019060200180831161046057829003601f168201915b5050505050815260200160018201805461049690611987565b80601f01602080910402602001604051908101604052809291908181526020018280546104c290611987565b801561050f5780601f106104e45761010080835404028352916020019161050f565b820191906000526020600020905b8154815290600101906020018083116104f257829003601f168201915b5050505050815260200160028201805461052890611987565b80601f016020809104026020016040519081016040528092919081815260200182805461055490611987565b80156105a15780601f10610576576101008083540402835291602001916105a1565b820191906000526020600020905b81548152906001019060200180831161058457829003601f168201915b505050505081526020016003820180546105ba90611987565b80601f01602080910402602001604051908101604052809291908181526020018280546105e690611987565b80156106335780601f1061060857610100808354040283529160200191610633565b820191906000526020600020905b81548152906001019060200180831161061657829003601f168201915b5050505050815260200160048201548152505082828151811061065857610658611971565b6020026020010181905250808061066e90611a37565b915050610392565b509392505050565b6106b06040518060a0016040528060608152602001606081526020016060815260200160608152602001600081525090565b6002826040516106c09190611a50565b90815260405190819003602001902080546106da90611987565b90506000036107295760405162461bcd60e51b8152602060048201526016602482015275141c9bd99a5b1948191bd95cc81b9bdd08195e1a5cdd60521b60448201526064015b60405180910390fd5b6002826040516107399190611a50565b90815260200160405180910390206040518060a001604052908160008201805461076290611987565b80601f016020809104026020016040519081016040528092919081815260200182805461078e90611987565b80156107db5780601f106107b0576101008083540402835291602001916107db565b820191906000526020600020905b8154815290600101906020018083116107be57829003601f168201915b505050505081526020016001820180546107f490611987565b80601f016020809104026020016040519081016040528092919081815260200182805461082090611987565b801561086d5780601f106108425761010080835404028352916020019161086d565b820191906000526020600020905b81548152906001019060200180831161085057829003601f168201915b5050505050815260200160028201805461088690611987565b80601f01602080910402602001604051908101604052809291908181526020018280546108b290611987565b80156108ff5780601f106108d4576101008083540402835291602001916108ff565b820191906000526020600020905b8154815290600101906020018083116108e257829003601f168201915b5050505050815260200160038201805461091890611987565b80601f016020809104026020016040519081016040528092919081815260200182805461094490611987565b80156109915780601f1061096657610100808354040283529160200191610991565b820191906000526020600020905b81548152906001019060200180831161097457829003601f168201915b505050505081526020016004820154815250509050919050565b6109b3611437565b6000600954116109fb5760405162461bcd60e51b81526020600482015260136024820152724e6f206665657320746f20776974686472617760681b6044820152606401610720565b600080546009546040516001600160a01b039092169281156108fc029290818181858888f19350505050158015610a36573d6000803e3d6000fd5b506000600955565b610a46611437565b6007829055600881905560408051838152602081018390527f5c6323bf1c2d7aaea2c091a4751c1c87af7f2864650c336507a77d0557af37a191015b60405180910390a15050565b610a96611437565b610aa06000611491565b565b60006001600160a01b0316600486604051610abd9190611a50565b908152604051908190036020019020546001600160a01b031614610b1c5760405162461bcd60e51b81526020600482015260166024820152752ab9b2b93730b6b29030b63932b0b23c903a30b5b2b760511b6044820152606401610720565b6040518060a0016040528085815260200186815260200184815260200183815260200182815250600286604051610b539190611a50565b90815260405190819003602001902081518190610b709082611abb565b5060208201516001820190610b859082611abb565b5060408201516002820190610b9a9082611abb565b5060608201516003820190610baf9082611abb565b506080820151816004015590505033600486604051610bce9190611a50565b90815260405190819003602001902080546001600160a01b03929092166001600160a01b0319909216919091179055600680546001810182556000919091527ff652222313e28459528d920b65115c16c04f3efc82aaedc97be59f3f377c0d3f01610c398682611abb565b507f62ef9773503de4dcf411c8f6c4968707609c4fba31ea026b68cf87d942d2ff0485604051610c699190611b7b565b60405180910390a15050505050565b336001600160a01b0316600486604051610c929190611a50565b908152604051908190036020019020546001600160a01b031614610d065760405162461bcd60e51b815260206004820152602560248201527f4e6f7420617574686f72697a656420746f2075706461746520746869732070726044820152646f66696c6560d81b6064820152608401610720565b6040518060a0016040528085815260200186815260200184815260200183815260200182815250600286604051610d3d9190611a50565b90815260405190819003602001902081518190610d5a9082611abb565b5060208201516001820190610d6f9082611abb565b5060408201516002820190610d849082611abb565b5060608201516003820190610d999082611abb565b50608082015181600401559050507f62ef9773503de4dcf411c8f6c4968707609c4fba31ea026b68cf87d942d2ff0485604051610c699190611b7b565b6000610d8080600081610df186670de0b6b3a7640000611b8e565b610dfb9190611ba5565b95945050505050565b6060600382604051610e169190611a50565b9081526020016040518091039020805480602002602001604051908101604052809291908181526020016000905b82821015610fae5783829060005260206000209060040201604051806080016040529081600082018054610e7790611987565b80601f0160208091040260200160405190810160405280929190818152602001828054610ea390611987565b8015610ef05780601f10610ec557610100808354040283529160200191610ef0565b820191906000526020600020905b815481529060010190602001808311610ed357829003601f168201915b50505050508152602001600182018054610f0990611987565b80601f0160208091040260200160405190810160405280929190818152602001828054610f3590611987565b8015610f825780601f10610f5757610100808354040283529160200191610f82565b820191906000526020600020905b815481529060010190602001808311610f6557829003601f168201915b505050505081526020016002820154815260200160038201548152505081526020019060010190610e44565b505050509050919050565b6000610fe5600285604051610fce9190611a50565b908152602001604051809103902060040154610dd6565b9050803410156110425760405162461bcd60e51b815260206004820152602260248201527f446f6e6174696f6e2062656c6f77206d696e696d756d20726571756972656d656044820152611b9d60f21b6064820152608401610720565b60006064600754346110549190611b8e565b61105e9190611ba5565b9050600061106d600854610dd6565b90508082101561107b578091505b816009600082825461108d9190611bc7565b9091555083905061109e8334611958565b10156111095760405162461bcd60e51b815260206004820152603460248201527f4e657420646f6e6174696f6e20616674657220666565732069732062656c6f77604482015273081b5a5b9a5b5d5b481c995c5d5a5c995b595b9d60621b6064820152608401610720565b6003866040516111199190611a50565b90815260200160405180910390206040518060800160405280878152602001868152602001843461114a9190611958565b81524260209182015282546001810184556000938452922081519192600402019081906111779082611abb565b506020820151600182019061118c9082611abb565b50604082015160028201556060909101516003909101556111ad8234611958565b6005876040516111bd9190611a50565b908152602001604051809103902060008282546111da9190611bc7565b909155507f5e0c1190239814ed6713490057a0d89ee21a51764602eff20db26dd921871d8e9050868661120d8534611958565b8760405161121e9493929190611bda565b60405180910390a1505050505050565b611236611437565b6001600160a01b03811661129b5760405162461bcd60e51b815260206004820152602660248201527f4f776e61626c653a206e6577206f776e657220697320746865207a65726f206160448201526564647265737360d01b6064820152608401610720565b6112a481611491565b50565b336001600160a01b03166004826040516112c19190611a50565b908152604051908190036020019020546001600160a01b0316146113415760405162461bcd60e51b815260206004820152603160248201527f4e6f7420617574686f72697a656420746f2077697468647261772066756e647360448201527020666f7220746869732070726f66696c6560781b6064820152608401610720565b60006005826040516113539190611a50565b9081526020016040518091039020549050600081116113b45760405162461bcd60e51b815260206004820152601860248201527f4e6f20646f6e6174696f6e7320746f20776974686472617700000000000000006044820152606401610720565b604051339082156108fc029083906000818181858888f193505050501580156113e1573d6000803e3d6000fd5b5060006005836040516113f49190611a50565b9081526020016040518091039020819055507f4467463b50ded51827ecf2a001448363831d6be8bd8d6d98e593abb1f0d2cb1e8282604051610a82929190611c24565b6000546001600160a01b03163314610aa05760405162461bcd60e51b815260206004820181905260248201527f4f776e61626c653a2063616c6c6572206973206e6f7420746865206f776e65726044820152606401610720565b600080546001600160a01b038381166001600160a01b0319831681178455604051919092169283917f8be0079c531659141344cd1fd0a4f28419497f9722a3daafe3b4186f6b6457e09190a35050565b60005b838110156114fc5781810151838201526020016114e4565b50506000910152565b6000815180845261151d8160208601602086016114e1565b601f01601f19169290920160200192915050565b6000815160a0845261154660a0850182611505565b90506020830151848203602086015261155f8282611505565b915050604083015184820360408601526115798282611505565b915050606083015184820360608601526115938282611505565b915050608083015160808501528091505092915050565b6000602080830181845280855180835260408601915060408160051b870101925083870160005b828110156115ff57603f198886030184526115ed858351611531565b945092850192908501906001016115d1565b5092979650505050505050565b634e487b7160e01b600052604160045260246000fd5b600082601f83011261163357600080fd5b813567ffffffffffffffff8082111561164e5761164e61160c565b604051601f8301601f19908116603f011681019082821181831017156116765761167661160c565b8160405283815286602085880101111561168f57600080fd5b836020870160208301376000602085830101528094505050505092915050565b6000602082840312156116c157600080fd5b813567ffffffffffffffff8111156116d857600080fd5b6116e484828501611622565b949350505050565b6020815260006116ff6020830184611531565b9392505050565b6000806040838503121561171957600080fd5b50508035926020909101359150565b600080600080600060a0868803121561174057600080fd5b853567ffffffffffffffff8082111561175857600080fd5b61176489838a01611622565b9650602088013591508082111561177a57600080fd5b61178689838a01611622565b9550604088013591508082111561179c57600080fd5b6117a889838a01611622565b945060608801359150808211156117be57600080fd5b506117cb88828901611622565b95989497509295608001359392505050565b6000602082840312156117ef57600080fd5b5035919050565b60006020808301818452808551808352604092508286019150828160051b87010184880160005b8381101561188357603f1989840301855281516080815181865261184382870182611505565b915050888201518582038a87015261185b8282611505565b838a0151878b015260609384015193909601929092525050938601939086019060010161181d565b509098975050505050505050565b6000806000606084860312156118a657600080fd5b833567ffffffffffffffff808211156118be57600080fd5b6118ca87838801611622565b945060208601359150808211156118e057600080fd5b6118ec87838801611622565b9350604086013591508082111561190257600080fd5b5061190f86828701611622565b9150509250925092565b60006020828403121561192b57600080fd5b81356001600160a01b03811681146116ff57600080fd5b634e487b7160e01b600052601160045260246000fd5b8181038181111561196b5761196b611942565b92915050565b634e487b7160e01b600052603260045260246000fd5b600181811c9082168061199b57607f821691505b6020821081036119bb57634e487b7160e01b600052602260045260246000fd5b50919050565b60008083546119cf81611987565b600182811680156119e757600181146119fc57611a2b565b60ff1984168752821515830287019450611a2b565b8760005260208060002060005b85811015611a225781548a820152908401908201611a09565b50505082870194505b50929695505050505050565b600060018201611a4957611a49611942565b5060010190565b60008251611a628184602087016114e1565b9190910192915050565b601f821115611ab657600081815260208120601f850160051c81016020861015611a935750805b601f850160051c820191505b81811015611ab257828155600101611a9f565b5050505b505050565b815167ffffffffffffffff811115611ad557611ad561160c565b611ae981611ae38454611987565b84611a6c565b602080601f831160018114611b1e5760008415611b065750858301515b600019600386901b1c1916600185901b178555611ab2565b600085815260208120601f198616915b82811015611b4d57888601518255948401946001909101908401611b2e565b5085821015611b6b5787850151600019600388901b60f8161c191681555b5050505050600190811b01905550565b6020815260006116ff6020830184611505565b808202811582820484141761196b5761196b611942565b600082611bc257634e487b7160e01b600052601260045260246000fd5b500490565b8082018082111561196b5761196b611942565b608081526000611bed6080830187611505565b8281036020840152611bff8187611505565b90508460408401528281036060840152611c198185611505565b979650505050505050565b604081526000611c376040830185611505565b9050826020830152939250505056fea2646970667358221220379fa45d385ebc4a49ebda2271fc616cd7527ff7c95d83239319736a734c198964736f6c63430008110033",
  "devdoc": {
    "author": "glebshkut",
    "kind": "dev",
    "methods": {
      "owner()": {
        "details": "Returns the address of the current owner."
      },
      "renounceOwnership()": {
        "details": "Leaves the contract without owner. It will not be possible to call `onlyOwner` functions anymore. Can only be called by the current owner. NOTE: Renouncing ownership will leave the contract without an owner, thereby removing any functionality that is only available to the owner."
      },
      "transferOwnership(address)": {
        "details": "Transfers ownership of the contract to a new account (`newOwner`). Can only be called by the current owner."
      }
    },
    "version": 1
  },
  "userdoc": {
    "kind": "user",
    "methods": {},
    "notice": "A smart contract that allows making donations to creators. It also allows the owner to withdraw the Ether in the contract",
    "version": 1
  },
  "storageLayout": {
    "storage": [
      {
        "astId": 7,
        "contract": "contracts/CryptoPatrons.sol:CryptoPatrons",
        "label": "_owner",
        "offset": 0,
        "slot": "0",
        "type": "t_address"
      },
      {
        "astId": 270,
        "contract": "contracts/CryptoPatrons.sol:CryptoPatrons",
        "label": "priceFeed",
        "offset": 0,
        "slot": "1",
        "type": "t_contract(AggregatorV3Interface)258"
      },
      {
        "astId": 339,
        "contract": "contracts/CryptoPatrons.sol:CryptoPatrons",
        "label": "_profiles",
        "offset": 0,
        "slot": "2",
        "type": "t_mapping(t_string_memory_ptr,t_struct(CreatorProfile)291_storage)"
      },
      {
        "astId": 345,
        "contract": "contracts/CryptoPatrons.sol:CryptoPatrons",
        "label": "_donations",
        "offset": 0,
        "slot": "3",
        "type": "t_mapping(t_string_memory_ptr,t_array(t_struct(Donation)300_storage)dyn_storage)"
      },
      {
        "astId": 349,
        "contract": "contracts/CryptoPatrons.sol:CryptoPatrons",
        "label": "_profileOwners",
        "offset": 0,
        "slot": "4",
        "type": "t_mapping(t_string_memory_ptr,t_address)"
      },
      {
        "astId": 353,
        "contract": "contracts/CryptoPatrons.sol:CryptoPatrons",
        "label": "_donationsAmount",
        "offset": 0,
        "slot": "5",
        "type": "t_mapping(t_string_memory_ptr,t_uint256)"
      },
      {
        "astId": 356,
        "contract": "contracts/CryptoPatrons.sol:CryptoPatrons",
        "label": "_profileUsernames",
        "offset": 0,
        "slot": "6",
        "type": "t_array(t_string_storage)dyn_storage"
      },
      {
        "astId": 359,
        "contract": "contracts/CryptoPatrons.sol:CryptoPatrons",
        "label": "feePercentage",
        "offset": 0,
        "slot": "7",
        "type": "t_uint256"
      },
      {
        "astId": 362,
        "contract": "contracts/CryptoPatrons.sol:CryptoPatrons",
        "label": "minimumRequiredFeeUSD",
        "offset": 0,
        "slot": "8",
        "type": "t_uint256"
      },
      {
        "astId": 365,
        "contract": "contracts/CryptoPatrons.sol:CryptoPatrons",
        "label": "collectedFees",
        "offset": 0,
        "slot": "9",
        "type": "t_uint256"
      }
    ],
    "types": {
      "t_address": {
        "encoding": "inplace",
        "label": "address",
        "numberOfBytes": "20"
      },
      "t_array(t_string_storage)dyn_storage": {
        "base": "t_string_storage",
        "encoding": "dynamic_array",
        "label": "string[]",
        "numberOfBytes": "32"
      },
      "t_array(t_struct(Donation)300_storage)dyn_storage": {
        "base": "t_struct(Donation)300_storage",
        "encoding": "dynamic_array",
        "label": "struct CryptoPatrons.Donation[]",
        "numberOfBytes": "32"
      },
      "t_contract(AggregatorV3Interface)258": {
        "encoding": "inplace",
        "label": "contract AggregatorV3Interface",
        "numberOfBytes": "20"
      },
      "t_mapping(t_string_memory_ptr,t_address)": {
        "encoding": "mapping",
        "key": "t_string_memory_ptr",
        "label": "mapping(string => address)",
        "numberOfBytes": "32",
        "value": "t_address"
      },
      "t_mapping(t_string_memory_ptr,t_array(t_struct(Donation)300_storage)dyn_storage)": {
        "encoding": "mapping",
        "key": "t_string_memory_ptr",
        "label": "mapping(string => struct CryptoPatrons.Donation[])",
        "numberOfBytes": "32",
        "value": "t_array(t_struct(Donation)300_storage)dyn_storage"
      },
      "t_mapping(t_string_memory_ptr,t_struct(CreatorProfile)291_storage)": {
        "encoding": "mapping",
        "key": "t_string_memory_ptr",
        "label": "mapping(string => struct CryptoPatrons.CreatorProfile)",
        "numberOfBytes": "32",
        "value": "t_struct(CreatorProfile)291_storage"
      },
      "t_mapping(t_string_memory_ptr,t_uint256)": {
        "encoding": "mapping",
        "key": "t_string_memory_ptr",
        "label": "mapping(string => uint256)",
        "numberOfBytes": "32",
        "value": "t_uint256"
      },
      "t_string_memory_ptr": {
        "encoding": "bytes",
        "label": "string",
        "numberOfBytes": "32"
      },
      "t_string_storage": {
        "encoding": "bytes",
        "label": "string",
        "numberOfBytes": "32"
      },
      "t_struct(CreatorProfile)291_storage": {
        "encoding": "inplace",
        "label": "struct CryptoPatrons.CreatorProfile",
        "members": [
          {
            "astId": 282,
            "contract": "contracts/CryptoPatrons.sol:CryptoPatrons",
            "label": "name",
            "offset": 0,
            "slot": "0",
            "type": "t_string_storage"
          },
          {
            "astId": 284,
            "contract": "contracts/CryptoPatrons.sol:CryptoPatrons",
            "label": "username",
            "offset": 0,
            "slot": "1",
            "type": "t_string_storage"
          },
          {
            "astId": 286,
            "contract": "contracts/CryptoPatrons.sol:CryptoPatrons",
            "label": "description",
            "offset": 0,
            "slot": "2",
            "type": "t_string_storage"
          },
          {
            "astId": 288,
            "contract": "contracts/CryptoPatrons.sol:CryptoPatrons",
            "label": "profilePictureURL",
            "offset": 0,
            "slot": "3",
            "type": "t_string_storage"
          },
          {
            "astId": 290,
            "contract": "contracts/CryptoPatrons.sol:CryptoPatrons",
            "label": "minDonationUSD",
            "offset": 0,
            "slot": "4",
            "type": "t_uint256"
          }
        ],
        "numberOfBytes": "160"
      },
      "t_struct(Donation)300_storage": {
        "encoding": "inplace",
        "label": "struct CryptoPatrons.Donation",
        "members": [
          {
            "astId": 293,
            "contract": "contracts/CryptoPatrons.sol:CryptoPatrons",
            "label": "donorName",
            "offset": 0,
            "slot": "0",
            "type": "t_string_storage"
          },
          {
            "astId": 295,
            "contract": "contracts/CryptoPatrons.sol:CryptoPatrons",
            "label": "message",
            "offset": 0,
            "slot": "1",
            "type": "t_string_storage"
          },
          {
            "astId": 297,
            "contract": "contracts/CryptoPatrons.sol:CryptoPatrons",
            "label": "amount",
            "offset": 0,
            "slot": "2",
            "type": "t_uint256"
          },
          {
            "astId": 299,
            "contract": "contracts/CryptoPatrons.sol:CryptoPatrons",
            "label": "timestamp",
            "offset": 0,
            "slot": "3",
            "type": "t_uint256"
          }
        ],
        "numberOfBytes": "128"
      },
      "t_uint256": {
        "encoding": "inplace",
        "label": "uint256",
        "numberOfBytes": "32"
      }
    }
  }
}