{
  "address": "0xf524930660f75CF602e909C15528d58459AB2A56",
  "abi": [
    {
      "inputs": [],
      "stateMutability": "nonpayable",
      "type": "constructor"
    },
    {
      "anonymous": false,
      "inputs": [
        {
          "indexed": false,
          "internalType": "string",
          "name": "username",
          "type": "string"
        },
        {
          "indexed": false,
          "internalType": "string",
          "name": "goalDescription",
          "type": "string"
        },
        {
          "indexed": false,
          "internalType": "uint256",
          "name": "goalAmount",
          "type": "uint256"
        }
      ],
      "name": "DonationGoalCreated",
      "type": "event"
    },
    {
      "anonymous": false,
      "inputs": [
        {
          "indexed": false,
          "internalType": "string",
          "name": "username",
          "type": "string"
        },
        {
          "indexed": false,
          "internalType": "string",
          "name": "donorName",
          "type": "string"
        },
        {
          "indexed": false,
          "internalType": "uint256",
          "name": "amount",
          "type": "uint256"
        },
        {
          "indexed": false,
          "internalType": "string",
          "name": "message",
          "type": "string"
        }
      ],
      "name": "DonationMade",
      "type": "event"
    },
    {
      "anonymous": false,
      "inputs": [
        {
          "indexed": false,
          "internalType": "string",
          "name": "username",
          "type": "string"
        },
        {
          "indexed": false,
          "internalType": "uint256",
          "name": "amount",
          "type": "uint256"
        }
      ],
      "name": "DonationWithdrawn",
      "type": "event"
    },
    {
      "anonymous": false,
      "inputs": [
        {
          "indexed": false,
          "internalType": "uint256",
          "name": "feePercentage",
          "type": "uint256"
        },
        {
          "indexed": false,
          "internalType": "uint256",
          "name": "minimumRequiredFeeUSD",
          "type": "uint256"
        }
      ],
      "name": "FeesUpdated",
      "type": "event"
    },
    {
      "anonymous": false,
      "inputs": [
        {
          "indexed": true,
          "internalType": "address",
          "name": "previousOwner",
          "type": "address"
        },
        {
          "indexed": true,
          "internalType": "address",
          "name": "newOwner",
          "type": "address"
        }
      ],
      "name": "OwnershipTransferred",
      "type": "event"
    },
    {
      "anonymous": false,
      "inputs": [
        {
          "indexed": false,
          "internalType": "string",
          "name": "username",
          "type": "string"
        }
      ],
      "name": "ProfileUpdated",
      "type": "event"
    },
    {
      "inputs": [
        {
          "internalType": "uint256",
          "name": "usdAmount",
          "type": "uint256"
        }
      ],
      "name": "_convertUSDToETH",
      "outputs": [
        {
          "internalType": "uint256",
          "name": "",
          "type": "uint256"
        }
      ],
      "stateMutability": "pure",
      "type": "function"
    },
    {
      "inputs": [
        {
          "internalType": "string",
          "name": "username",
          "type": "string"
        },
        {
          "internalType": "string",
          "name": "name",
          "type": "string"
        },
        {
          "internalType": "string",
          "name": "description",
          "type": "string"
        },
        {
          "internalType": "string",
          "name": "profilePictureURL",
          "type": "string"
        },
        {
          "internalType": "uint256",
          "name": "minDonationUSD",
          "type": "uint256"
        },
        {
          "internalType": "string[]",
          "name": "prohibitedWords",
          "type": "string[]"
        }
      ],
      "name": "createProfile",
      "outputs": [],
      "stateMutability": "nonpayable",
      "type": "function"
    },
    {
      "inputs": [],
      "name": "feePercentage",
      "outputs": [
        {
          "internalType": "uint256",
          "name": "",
          "type": "uint256"
        }
      ],
      "stateMutability": "view",
      "type": "function"
    },
    {
      "inputs": [
        {
          "internalType": "string",
          "name": "username",
          "type": "string"
        }
      ],
      "name": "getAllDonations",
      "outputs": [
        {
          "components": [
            {
              "internalType": "string",
              "name": "donorName",
              "type": "string"
            },
            {
              "internalType": "string",
              "name": "message",
              "type": "string"
            },
            {
              "internalType": "uint256",
              "name": "amount",
              "type": "uint256"
            },
            {
              "internalType": "uint256",
              "name": "timestamp",
              "type": "uint256"
            }
          ],
          "internalType": "struct CryptoPatrons.Donation[]",
          "name": "",
          "type": "tuple[]"
        }
      ],
      "stateMutability": "view",
      "type": "function"
    },
    {
      "inputs": [],
      "name": "getLatestPrice",
      "outputs": [
        {
          "internalType": "int256",
          "name": "",
          "type": "int256"
        }
      ],
      "stateMutability": "pure",
      "type": "function"
    },
    {
      "inputs": [
        {
          "internalType": "string",
          "name": "username",
          "type": "string"
        }
      ],
      "name": "getProfile",
      "outputs": [
        {
          "components": [
            {
              "internalType": "string",
              "name": "name",
              "type": "string"
            },
            {
              "internalType": "string",
              "name": "username",
              "type": "string"
            },
            {
              "internalType": "string",
              "name": "description",
              "type": "string"
            },
            {
              "internalType": "string",
              "name": "profilePictureURL",
              "type": "string"
            },
            {
              "internalType": "uint256",
              "name": "minDonationUSD",
              "type": "uint256"
            },
            {
              "internalType": "string[]",
              "name": "prohibitedWords",
              "type": "string[]"
            }
          ],
          "internalType": "struct CryptoPatrons.CreatorProfile",
          "name": "",
          "type": "tuple"
        }
      ],
      "stateMutability": "view",
      "type": "function"
    },
    {
      "inputs": [
        {
          "internalType": "string",
          "name": "username",
          "type": "string"
        },
        {
          "internalType": "string",
          "name": "donorName",
          "type": "string"
        },
        {
          "internalType": "string",
          "name": "message",
          "type": "string"
        }
      ],
      "name": "makeDonation",
      "outputs": [],
      "stateMutability": "payable",
      "type": "function"
    },
    {
      "inputs": [],
      "name": "minimumRequiredFeeUSD",
      "outputs": [
        {
          "internalType": "uint256",
          "name": "",
          "type": "uint256"
        }
      ],
      "stateMutability": "view",
      "type": "function"
    },
    {
      "inputs": [],
      "name": "owner",
      "outputs": [
        {
          "internalType": "address",
          "name": "",
          "type": "address"
        }
      ],
      "stateMutability": "view",
      "type": "function"
    },
    {
      "inputs": [],
      "name": "renounceOwnership",
      "outputs": [],
      "stateMutability": "nonpayable",
      "type": "function"
    },
    {
      "inputs": [
        {
          "internalType": "address",
          "name": "newOwner",
          "type": "address"
        }
      ],
      "name": "transferOwnership",
      "outputs": [],
      "stateMutability": "nonpayable",
      "type": "function"
    },
    {
      "inputs": [
        {
          "internalType": "uint256",
          "name": "_feePercentage",
          "type": "uint256"
        },
        {
          "internalType": "uint256",
          "name": "_minimumRequiredFeeUSD",
          "type": "uint256"
        }
      ],
      "name": "updateFeeSettings",
      "outputs": [],
      "stateMutability": "nonpayable",
      "type": "function"
    },
    {
      "inputs": [
        {
          "internalType": "string",
          "name": "username",
          "type": "string"
        },
        {
          "internalType": "string",
          "name": "name",
          "type": "string"
        },
        {
          "internalType": "string",
          "name": "description",
          "type": "string"
        },
        {
          "internalType": "string",
          "name": "profilePictureURL",
          "type": "string"
        },
        {
          "internalType": "uint256",
          "name": "minDonationUSD",
          "type": "uint256"
        },
        {
          "internalType": "string[]",
          "name": "prohibitedWords",
          "type": "string[]"
        }
      ],
      "name": "updateProfile",
      "outputs": [],
      "stateMutability": "nonpayable",
      "type": "function"
    },
    {
      "inputs": [
        {
          "internalType": "string",
          "name": "username",
          "type": "string"
        }
      ],
      "name": "withdrawDonations",
      "outputs": [],
      "stateMutability": "nonpayable",
      "type": "function"
    },
    {
      "inputs": [],
      "name": "withdrawFees",
      "outputs": [],
      "stateMutability": "nonpayable",
      "type": "function"
    }
  ],
  "transactionHash": "0x6440addeb8588cd24ab8bd415de499a234c4654f78f0d67dd64d4b3ed6c90092",
  "args": [],
  "numDeployments": 1,
  "solcInputHash": "fae7a8672fbf8f92de1231ae99778648",
  "bytecode": "0x608060405260006006556000600755600060085534801561001f57600080fd5b5061002933610054565b600180546001600160a01b031916735f4ec3df9cbd43714fe2740f5e3616155c5b84191790556100a4565b600080546001600160a01b038381166001600160a01b0319831681178455604051919092169283917f8be0079c531659141344cd1fd0a4f28419497f9722a3daafe3b4186f6b6457e09190a35050565b611a81806100b36000396000f3fe6080604052600436106100e85760003560e01c80638e15f4731161008a578063d498455d11610059578063d498455d14610246578063edc27dd614610273578063f2fde38b14610286578063f6a77e4f146102a657600080fd5b80638e15f473146101db578063a001ecdd146101f0578063b9ffd20814610206578063d30e1c9c1461022657600080fd5b80634b04e7cd116100c65780634b04e7cd1461015a5780636af1eed91461017a578063715018a61461019e5780638da5cb5b146101b357600080fd5b80630c14dff9146100ed5780630de986931461010f578063476343ee14610145575b600080fd5b3480156100f957600080fd5b5061010d610108366004611412565b6102c6565b005b34801561011b57600080fd5b5061012f61012a3660046114ec565b610486565b60405161013c9190611579565b60405180910390f35b34801561015157600080fd5b5061010d61088d565b34801561016657600080fd5b5061010d61017536600461165e565b610920565b34801561018657600080fd5b5061019060075481565b60405190815260200161013c565b3480156101aa57600080fd5b5061010d610970565b3480156101bf57600080fd5b506000546040516001600160a01b03909116815260200161013c565b3480156101e757600080fd5b50610d80610190565b3480156101fc57600080fd5b5061019060065481565b34801561021257600080fd5b5061010d610221366004611412565b610984565b34801561023257600080fd5b50610190610241366004611680565b610b04565b34801561025257600080fd5b506102666102613660046114ec565b610b32565b60405161013c9190611699565b61010d610281366004611734565b610ce7565b34801561029257600080fd5b5061010d6102a13660046117bc565b610f4c565b3480156102b257600080fd5b5061010d6102c13660046114ec565b610fc5565b60006001600160a01b03166004876040516102e191906117ec565b908152604051908190036020019020546001600160a01b0316146103455760405162461bcd60e51b81526020600482015260166024820152752ab9b2b93730b6b29030b63932b0b23c903a30b5b2b760511b60448201526064015b60405180910390fd5b6040518060c001604052808681526020018781526020018581526020018481526020018381526020018281525060028760405161038291906117ec565b9081526040519081900360200190208151819061039f9082611891565b50602082015160018201906103b49082611891565b50604082015160028201906103c99082611891565b50606082015160038201906103de9082611891565b506080820151600482015560a082015180516104049160058401916020909101906111ff565b509050503360048760405161041991906117ec565b90815260405190819003602001812080546001600160a01b03939093166001600160a01b0319909316929092179091557f62ef9773503de4dcf411c8f6c4968707609c4fba31ea026b68cf87d942d2ff0490610476908890611951565b60405180910390a1505050505050565b6104bf6040518060c001604052806060815260200160608152602001606081526020016060815260200160008152602001606081525090565b6002826040516104cf91906117ec565b90815260405190819003602001902080546104e990611808565b90506000036105335760405162461bcd60e51b8152602060048201526016602482015275141c9bd99a5b1948191bd95cc81b9bdd08195e1a5cdd60521b604482015260640161033c565b60028260405161054391906117ec565b90815260200160405180910390206040518060c001604052908160008201805461056c90611808565b80601f016020809104026020016040519081016040528092919081815260200182805461059890611808565b80156105e55780601f106105ba576101008083540402835291602001916105e5565b820191906000526020600020905b8154815290600101906020018083116105c857829003601f168201915b505050505081526020016001820180546105fe90611808565b80601f016020809104026020016040519081016040528092919081815260200182805461062a90611808565b80156106775780601f1061064c57610100808354040283529160200191610677565b820191906000526020600020905b81548152906001019060200180831161065a57829003601f168201915b5050505050815260200160028201805461069090611808565b80601f01602080910402602001604051908101604052809291908181526020018280546106bc90611808565b80156107095780601f106106de57610100808354040283529160200191610709565b820191906000526020600020905b8154815290600101906020018083116106ec57829003601f168201915b5050505050815260200160038201805461072290611808565b80601f016020809104026020016040519081016040528092919081815260200182805461074e90611808565b801561079b5780601f106107705761010080835404028352916020019161079b565b820191906000526020600020905b81548152906001019060200180831161077e57829003601f168201915b505050505081526020016004820154815260200160058201805480602002602001604051908101604052809291908181526020016000905b8282101561087f5783829060005260206000200180546107f290611808565b80601f016020809104026020016040519081016040528092919081815260200182805461081e90611808565b801561086b5780601f106108405761010080835404028352916020019161086b565b820191906000526020600020905b81548152906001019060200180831161084e57829003601f168201915b5050505050815260200190600101906107d3565b505050915250909392505050565b610895611155565b6000600854116108dd5760405162461bcd60e51b81526020600482015260136024820152724e6f206665657320746f20776974686472617760681b604482015260640161033c565b600080546008546040516001600160a01b039092169281156108fc029290818181858888f19350505050158015610918573d6000803e3d6000fd5b506000600855565b610928611155565b6006829055600781905560408051838152602081018390527f5c6323bf1c2d7aaea2c091a4751c1c87af7f2864650c336507a77d0557af37a191015b60405180910390a15050565b610978611155565b61098260006111af565b565b336001600160a01b031660048760405161099e91906117ec565b908152604051908190036020019020546001600160a01b031614610a125760405162461bcd60e51b815260206004820152602560248201527f4e6f7420617574686f72697a656420746f2075706461746520746869732070726044820152646f66696c6560d81b606482015260840161033c565b6040518060c0016040528086815260200187815260200185815260200184815260200183815260200182815250600287604051610a4f91906117ec565b90815260405190819003602001902081518190610a6c9082611891565b5060208201516001820190610a819082611891565b5060408201516002820190610a969082611891565b5060608201516003820190610aab9082611891565b506080820151600482015560a08201518051610ad19160058401916020909101906111ff565b509050507f62ef9773503de4dcf411c8f6c4968707609c4fba31ea026b68cf87d942d2ff04866040516104769190611951565b6000610d8080600081610b1f86670de0b6b3a764000061197a565b610b299190611997565b95945050505050565b6060600382604051610b4491906117ec565b9081526020016040518091039020805480602002602001604051908101604052809291908181526020016000905b82821015610cdc5783829060005260206000209060040201604051806080016040529081600082018054610ba590611808565b80601f0160208091040260200160405190810160405280929190818152602001828054610bd190611808565b8015610c1e5780601f10610bf357610100808354040283529160200191610c1e565b820191906000526020600020905b815481529060010190602001808311610c0157829003601f168201915b50505050508152602001600182018054610c3790611808565b80601f0160208091040260200160405190810160405280929190818152602001828054610c6390611808565b8015610cb05780601f10610c8557610100808354040283529160200191610cb0565b820191906000526020600020905b815481529060010190602001808311610c9357829003601f168201915b505050505081526020016002820154815260200160038201548152505081526020019060010190610b72565b505050509050919050565b6000610d13600285604051610cfc91906117ec565b908152602001604051809103902060040154610b04565b905080341015610d705760405162461bcd60e51b815260206004820152602260248201527f446f6e6174696f6e2062656c6f77206d696e696d756d20726571756972656d656044820152611b9d60f21b606482015260840161033c565b6000606460065434610d82919061197a565b610d8c9190611997565b90506000610d9b600754610b04565b905080821015610da9578091505b8160086000828254610dbb91906119b9565b90915550839050610dcc83346119cc565b1015610e375760405162461bcd60e51b815260206004820152603460248201527f4e657420646f6e6174696f6e20616674657220666565732069732062656c6f77604482015273081b5a5b9a5b5d5b481c995c5d5a5c995b595b9d60621b606482015260840161033c565b600386604051610e4791906117ec565b908152602001604051809103902060405180608001604052808781526020018681526020018434610e7891906119cc565b8152426020918201528254600181018455600093845292208151919260040201908190610ea59082611891565b5060208201516001820190610eba9082611891565b5060408201516002820155606090910151600390910155610edb82346119cc565b600587604051610eeb91906117ec565b90815260200160405180910390206000828254610f0891906119b9565b909155507f5e0c1190239814ed6713490057a0d89ee21a51764602eff20db26dd921871d8e90508686610f3b85346119cc565b8760405161047694939291906119df565b610f54611155565b6001600160a01b038116610fb95760405162461bcd60e51b815260206004820152602660248201527f4f776e61626c653a206e6577206f776e657220697320746865207a65726f206160448201526564647265737360d01b606482015260840161033c565b610fc2816111af565b50565b336001600160a01b0316600482604051610fdf91906117ec565b908152604051908190036020019020546001600160a01b03161461105f5760405162461bcd60e51b815260206004820152603160248201527f4e6f7420617574686f72697a656420746f2077697468647261772066756e647360448201527020666f7220746869732070726f66696c6560781b606482015260840161033c565b600060058260405161107191906117ec565b9081526020016040518091039020549050600081116110d25760405162461bcd60e51b815260206004820152601860248201527f4e6f20646f6e6174696f6e7320746f2077697468647261770000000000000000604482015260640161033c565b604051339082156108fc029083906000818181858888f193505050501580156110ff573d6000803e3d6000fd5b50600060058360405161111291906117ec565b9081526020016040518091039020819055507f4467463b50ded51827ecf2a001448363831d6be8bd8d6d98e593abb1f0d2cb1e8282604051610964929190611a29565b6000546001600160a01b031633146109825760405162461bcd60e51b815260206004820181905260248201527f4f776e61626c653a2063616c6c6572206973206e6f7420746865206f776e6572604482015260640161033c565b600080546001600160a01b038381166001600160a01b0319831681178455604051919092169283917f8be0079c531659141344cd1fd0a4f28419497f9722a3daafe3b4186f6b6457e09190a35050565b828054828255906000526020600020908101928215611245579160200282015b8281111561124557825182906112359082611891565b509160200191906001019061121f565b50611251929150611255565b5090565b808211156112515760006112698282611272565b50600101611255565b50805461127e90611808565b6000825580601f1061128e575050565b601f016020900490600052602060002090810190610fc291905b8082111561125157600081556001016112a8565b634e487b7160e01b600052604160045260246000fd5b604051601f8201601f1916810167ffffffffffffffff811182821017156112fb576112fb6112bc565b604052919050565b600082601f83011261131457600080fd5b813567ffffffffffffffff81111561132e5761132e6112bc565b611341601f8201601f19166020016112d2565b81815284602083860101111561135657600080fd5b816020850160208301376000918101602001919091529392505050565b600082601f83011261138457600080fd5b8135602067ffffffffffffffff808311156113a1576113a16112bc565b8260051b6113b08382016112d2565b93845285810183019383810190888611156113ca57600080fd5b84880192505b85831015611406578235848111156113e85760008081fd5b6113f68a87838c0101611303565b83525091840191908401906113d0565b98975050505050505050565b60008060008060008060c0878903121561142b57600080fd5b863567ffffffffffffffff8082111561144357600080fd5b61144f8a838b01611303565b9750602089013591508082111561146557600080fd5b6114718a838b01611303565b9650604089013591508082111561148757600080fd5b6114938a838b01611303565b955060608901359150808211156114a957600080fd5b6114b58a838b01611303565b94506080890135935060a08901359150808211156114d257600080fd5b506114df89828a01611373565b9150509295509295509295565b6000602082840312156114fe57600080fd5b813567ffffffffffffffff81111561151557600080fd5b61152184828501611303565b949350505050565b60005b8381101561154457818101518382015260200161152c565b50506000910152565b60008151808452611565816020860160208601611529565b601f01601f19169290920160200192915050565b60006020808352835160c08285015261159560e085018261154d565b905081850151601f19808684030160408701526115b2838361154d565b925060408701519150808684030160608701526115cf838361154d565b925060608701519150808684030160808701526115ec838361154d565b9250608087015160a087015260a08701519150808684030160c08701528282518085528585019150858160051b860101868501945060005b82811015611650578487830301845261163e82875161154d565b95880195938801939150600101611624565b509998505050505050505050565b6000806040838503121561167157600080fd5b50508035926020909101359150565b60006020828403121561169257600080fd5b5035919050565b60006020808301818452808551808352604092508286019150828160051b87010184880160005b8381101561172657603f198984030185528151608081518186526116e68287018261154d565b915050888201518582038a8701526116fe828261154d565b838a0151878b01526060938401519390960192909252505093860193908601906001016116c0565b509098975050505050505050565b60008060006060848603121561174957600080fd5b833567ffffffffffffffff8082111561176157600080fd5b61176d87838801611303565b9450602086013591508082111561178357600080fd5b61178f87838801611303565b935060408601359150808211156117a557600080fd5b506117b286828701611303565b9150509250925092565b6000602082840312156117ce57600080fd5b81356001600160a01b03811681146117e557600080fd5b9392505050565b600082516117fe818460208701611529565b9190910192915050565b600181811c9082168061181c57607f821691505b60208210810361183c57634e487b7160e01b600052602260045260246000fd5b50919050565b601f82111561188c57600081815260208120601f850160051c810160208610156118695750805b601f850160051c820191505b8181101561188857828155600101611875565b5050505b505050565b815167ffffffffffffffff8111156118ab576118ab6112bc565b6118bf816118b98454611808565b84611842565b602080601f8311600181146118f457600084156118dc5750858301515b600019600386901b1c1916600185901b178555611888565b600085815260208120601f198616915b8281101561192357888601518255948401946001909101908401611904565b50858210156119415787850151600019600388901b60f8161c191681555b5050505050600190811b01905550565b6020815260006117e5602083018461154d565b634e487b7160e01b600052601160045260246000fd5b808202811582820484141761199157611991611964565b92915050565b6000826119b457634e487b7160e01b600052601260045260246000fd5b500490565b8082018082111561199157611991611964565b8181038181111561199157611991611964565b6080815260006119f2608083018761154d565b8281036020840152611a04818761154d565b90508460408401528281036060840152611a1e818561154d565b979650505050505050565b604081526000611a3c604083018561154d565b9050826020830152939250505056fea264697066735822122087048861de41cfa84fc09912a7a1ba7c018a7110f3885d0364749d9f0563251264736f6c63430008110033",
  "devdoc": {
    "author": "glebshkut",
    "kind": "dev",
    "methods": {
      "owner()": {
        "details": "Returns the address of the current owner."
      },
      "renounceOwnership()": {
        "details": "Leaves the contract without owner. It will not be possible to call `onlyOwner` functions anymore. Can only be called by the current owner. NOTE: Renouncing ownership will leave the contract without an owner, thereby removing any functionality that is only available to the owner."
      },
      "transferOwnership(address)": {
        "details": "Transfers ownership of the contract to a new account (`newOwner`). Can only be called by the current owner."
      }
    },
    "version": 1
  },
  "userdoc": {
    "kind": "user",
    "methods": {},
    "notice": "A smart contract that allows making donations to creators. It also allows the owner to withdraw the Ether in the contract",
    "version": 1
  },
  "storageLayout": {
    "storage": [
      {
        "astId": 7,
        "contract": "contracts/CryptoPatrons.sol:CryptoPatrons",
        "label": "_owner",
        "offset": 0,
        "slot": "0",
        "type": "t_address"
      },
      {
        "astId": 270,
        "contract": "contracts/CryptoPatrons.sol:CryptoPatrons",
        "label": "priceFeed",
        "offset": 0,
        "slot": "1",
        "type": "t_contract(AggregatorV3Interface)258"
      },
      {
        "astId": 342,
        "contract": "contracts/CryptoPatrons.sol:CryptoPatrons",
        "label": "_profiles",
        "offset": 0,
        "slot": "2",
        "type": "t_mapping(t_string_memory_ptr,t_struct(CreatorProfile)294_storage)"
      },
      {
        "astId": 348,
        "contract": "contracts/CryptoPatrons.sol:CryptoPatrons",
        "label": "_donations",
        "offset": 0,
        "slot": "3",
        "type": "t_mapping(t_string_memory_ptr,t_array(t_struct(Donation)303_storage)dyn_storage)"
      },
      {
        "astId": 352,
        "contract": "contracts/CryptoPatrons.sol:CryptoPatrons",
        "label": "_profileOwners",
        "offset": 0,
        "slot": "4",
        "type": "t_mapping(t_string_memory_ptr,t_address)"
      },
      {
        "astId": 356,
        "contract": "contracts/CryptoPatrons.sol:CryptoPatrons",
        "label": "_donationsAmount",
        "offset": 0,
        "slot": "5",
        "type": "t_mapping(t_string_memory_ptr,t_uint256)"
      },
      {
        "astId": 359,
        "contract": "contracts/CryptoPatrons.sol:CryptoPatrons",
        "label": "feePercentage",
        "offset": 0,
        "slot": "6",
        "type": "t_uint256"
      },
      {
        "astId": 362,
        "contract": "contracts/CryptoPatrons.sol:CryptoPatrons",
        "label": "minimumRequiredFeeUSD",
        "offset": 0,
        "slot": "7",
        "type": "t_uint256"
      },
      {
        "astId": 365,
        "contract": "contracts/CryptoPatrons.sol:CryptoPatrons",
        "label": "collectedFees",
        "offset": 0,
        "slot": "8",
        "type": "t_uint256"
      }
    ],
    "types": {
      "t_address": {
        "encoding": "inplace",
        "label": "address",
        "numberOfBytes": "20"
      },
      "t_array(t_string_storage)dyn_storage": {
        "base": "t_string_storage",
        "encoding": "dynamic_array",
        "label": "string[]",
        "numberOfBytes": "32"
      },
      "t_array(t_struct(Donation)303_storage)dyn_storage": {
        "base": "t_struct(Donation)303_storage",
        "encoding": "dynamic_array",
        "label": "struct CryptoPatrons.Donation[]",
        "numberOfBytes": "32"
      },
      "t_contract(AggregatorV3Interface)258": {
        "encoding": "inplace",
        "label": "contract AggregatorV3Interface",
        "numberOfBytes": "20"
      },
      "t_mapping(t_string_memory_ptr,t_address)": {
        "encoding": "mapping",
        "key": "t_string_memory_ptr",
        "label": "mapping(string => address)",
        "numberOfBytes": "32",
        "value": "t_address"
      },
      "t_mapping(t_string_memory_ptr,t_array(t_struct(Donation)303_storage)dyn_storage)": {
        "encoding": "mapping",
        "key": "t_string_memory_ptr",
        "label": "mapping(string => struct CryptoPatrons.Donation[])",
        "numberOfBytes": "32",
        "value": "t_array(t_struct(Donation)303_storage)dyn_storage"
      },
      "t_mapping(t_string_memory_ptr,t_struct(CreatorProfile)294_storage)": {
        "encoding": "mapping",
        "key": "t_string_memory_ptr",
        "label": "mapping(string => struct CryptoPatrons.CreatorProfile)",
        "numberOfBytes": "32",
        "value": "t_struct(CreatorProfile)294_storage"
      },
      "t_mapping(t_string_memory_ptr,t_uint256)": {
        "encoding": "mapping",
        "key": "t_string_memory_ptr",
        "label": "mapping(string => uint256)",
        "numberOfBytes": "32",
        "value": "t_uint256"
      },
      "t_string_memory_ptr": {
        "encoding": "bytes",
        "label": "string",
        "numberOfBytes": "32"
      },
      "t_string_storage": {
        "encoding": "bytes",
        "label": "string",
        "numberOfBytes": "32"
      },
      "t_struct(CreatorProfile)294_storage": {
        "encoding": "inplace",
        "label": "struct CryptoPatrons.CreatorProfile",
        "members": [
          {
            "astId": 282,
            "contract": "contracts/CryptoPatrons.sol:CryptoPatrons",
            "label": "name",
            "offset": 0,
            "slot": "0",
            "type": "t_string_storage"
          },
          {
            "astId": 284,
            "contract": "contracts/CryptoPatrons.sol:CryptoPatrons",
            "label": "username",
            "offset": 0,
            "slot": "1",
            "type": "t_string_storage"
          },
          {
            "astId": 286,
            "contract": "contracts/CryptoPatrons.sol:CryptoPatrons",
            "label": "description",
            "offset": 0,
            "slot": "2",
            "type": "t_string_storage"
          },
          {
            "astId": 288,
            "contract": "contracts/CryptoPatrons.sol:CryptoPatrons",
            "label": "profilePictureURL",
            "offset": 0,
            "slot": "3",
            "type": "t_string_storage"
          },
          {
            "astId": 290,
            "contract": "contracts/CryptoPatrons.sol:CryptoPatrons",
            "label": "minDonationUSD",
            "offset": 0,
            "slot": "4",
            "type": "t_uint256"
          },
          {
            "astId": 293,
            "contract": "contracts/CryptoPatrons.sol:CryptoPatrons",
            "label": "prohibitedWords",
            "offset": 0,
            "slot": "5",
            "type": "t_array(t_string_storage)dyn_storage"
          }
        ],
        "numberOfBytes": "192"
      },
      "t_struct(Donation)303_storage": {
        "encoding": "inplace",
        "label": "struct CryptoPatrons.Donation",
        "members": [
          {
            "astId": 296,
            "contract": "contracts/CryptoPatrons.sol:CryptoPatrons",
            "label": "donorName",
            "offset": 0,
            "slot": "0",
            "type": "t_string_storage"
          },
          {
            "astId": 298,
            "contract": "contracts/CryptoPatrons.sol:CryptoPatrons",
            "label": "message",
            "offset": 0,
            "slot": "1",
            "type": "t_string_storage"
          },
          {
            "astId": 300,
            "contract": "contracts/CryptoPatrons.sol:CryptoPatrons",
            "label": "amount",
            "offset": 0,
            "slot": "2",
            "type": "t_uint256"
          },
          {
            "astId": 302,
            "contract": "contracts/CryptoPatrons.sol:CryptoPatrons",
            "label": "timestamp",
            "offset": 0,
            "slot": "3",
            "type": "t_uint256"
          }
        ],
        "numberOfBytes": "128"
      },
      "t_uint256": {
        "encoding": "inplace",
        "label": "uint256",
        "numberOfBytes": "32"
      }
    }
  }
}