{
  "address": "0x619b8F76b51Bb81B67C4c182600D84103934727e",
  "abi": [
    {
      "inputs": [],
      "stateMutability": "nonpayable",
      "type": "constructor"
    },
    {
      "anonymous": false,
      "inputs": [
        {
          "indexed": false,
          "internalType": "string",
          "name": "username",
          "type": "string"
        },
        {
          "indexed": false,
          "internalType": "string",
          "name": "goalDescription",
          "type": "string"
        },
        {
          "indexed": false,
          "internalType": "uint256",
          "name": "goalAmount",
          "type": "uint256"
        }
      ],
      "name": "DonationGoalCreated",
      "type": "event"
    },
    {
      "anonymous": false,
      "inputs": [
        {
          "indexed": false,
          "internalType": "string",
          "name": "username",
          "type": "string"
        },
        {
          "indexed": false,
          "internalType": "string",
          "name": "donorName",
          "type": "string"
        },
        {
          "indexed": false,
          "internalType": "uint256",
          "name": "amount",
          "type": "uint256"
        },
        {
          "indexed": false,
          "internalType": "string",
          "name": "message",
          "type": "string"
        }
      ],
      "name": "DonationMade",
      "type": "event"
    },
    {
      "anonymous": false,
      "inputs": [
        {
          "indexed": false,
          "internalType": "string",
          "name": "username",
          "type": "string"
        },
        {
          "indexed": false,
          "internalType": "uint256",
          "name": "amount",
          "type": "uint256"
        }
      ],
      "name": "DonationWithdrawn",
      "type": "event"
    },
    {
      "anonymous": false,
      "inputs": [
        {
          "indexed": false,
          "internalType": "uint256",
          "name": "feePercentage",
          "type": "uint256"
        },
        {
          "indexed": false,
          "internalType": "uint256",
          "name": "minimumRequiredFeeUSD",
          "type": "uint256"
        }
      ],
      "name": "FeesUpdated",
      "type": "event"
    },
    {
      "anonymous": false,
      "inputs": [
        {
          "indexed": true,
          "internalType": "address",
          "name": "previousOwner",
          "type": "address"
        },
        {
          "indexed": true,
          "internalType": "address",
          "name": "newOwner",
          "type": "address"
        }
      ],
      "name": "OwnershipTransferred",
      "type": "event"
    },
    {
      "anonymous": false,
      "inputs": [
        {
          "indexed": false,
          "internalType": "string",
          "name": "username",
          "type": "string"
        }
      ],
      "name": "ProfileUpdated",
      "type": "event"
    },
    {
      "inputs": [
        {
          "internalType": "uint256",
          "name": "usdAmount",
          "type": "uint256"
        }
      ],
      "name": "_convertUSDToETH",
      "outputs": [
        {
          "internalType": "uint256",
          "name": "",
          "type": "uint256"
        }
      ],
      "stateMutability": "pure",
      "type": "function"
    },
    {
      "inputs": [
        {
          "internalType": "string",
          "name": "username",
          "type": "string"
        },
        {
          "internalType": "string",
          "name": "description",
          "type": "string"
        },
        {
          "internalType": "string",
          "name": "profilePictureURL",
          "type": "string"
        },
        {
          "internalType": "uint256",
          "name": "minDonationUSD",
          "type": "uint256"
        }
      ],
      "name": "createProfile",
      "outputs": [],
      "stateMutability": "nonpayable",
      "type": "function"
    },
    {
      "inputs": [],
      "name": "feePercentage",
      "outputs": [
        {
          "internalType": "uint256",
          "name": "",
          "type": "uint256"
        }
      ],
      "stateMutability": "view",
      "type": "function"
    },
    {
      "inputs": [
        {
          "internalType": "string",
          "name": "username",
          "type": "string"
        }
      ],
      "name": "getAllDonations",
      "outputs": [
        {
          "components": [
            {
              "internalType": "string",
              "name": "donorName",
              "type": "string"
            },
            {
              "internalType": "string",
              "name": "message",
              "type": "string"
            },
            {
              "internalType": "uint256",
              "name": "amount",
              "type": "uint256"
            },
            {
              "internalType": "uint256",
              "name": "timestamp",
              "type": "uint256"
            }
          ],
          "internalType": "struct CryptoPatrons.Donation[]",
          "name": "",
          "type": "tuple[]"
        }
      ],
      "stateMutability": "view",
      "type": "function"
    },
    {
      "inputs": [],
      "name": "getAllProfiles",
      "outputs": [
        {
          "components": [
            {
              "internalType": "string",
              "name": "username",
              "type": "string"
            },
            {
              "internalType": "string",
              "name": "description",
              "type": "string"
            },
            {
              "internalType": "string",
              "name": "profilePictureURL",
              "type": "string"
            },
            {
              "internalType": "uint256",
              "name": "minDonationUSD",
              "type": "uint256"
            }
          ],
          "internalType": "struct CryptoPatrons.CreatorProfile[]",
          "name": "",
          "type": "tuple[]"
        }
      ],
      "stateMutability": "view",
      "type": "function"
    },
    {
      "inputs": [],
      "name": "getLatestPrice",
      "outputs": [
        {
          "internalType": "int256",
          "name": "",
          "type": "int256"
        }
      ],
      "stateMutability": "pure",
      "type": "function"
    },
    {
      "inputs": [
        {
          "internalType": "string",
          "name": "username",
          "type": "string"
        }
      ],
      "name": "getProfile",
      "outputs": [
        {
          "components": [
            {
              "internalType": "string",
              "name": "username",
              "type": "string"
            },
            {
              "internalType": "string",
              "name": "description",
              "type": "string"
            },
            {
              "internalType": "string",
              "name": "profilePictureURL",
              "type": "string"
            },
            {
              "internalType": "uint256",
              "name": "minDonationUSD",
              "type": "uint256"
            }
          ],
          "internalType": "struct CryptoPatrons.CreatorProfile",
          "name": "",
          "type": "tuple"
        }
      ],
      "stateMutability": "view",
      "type": "function"
    },
    {
      "inputs": [
        {
          "internalType": "string",
          "name": "username",
          "type": "string"
        }
      ],
      "name": "getProfileOwner",
      "outputs": [
        {
          "internalType": "address",
          "name": "",
          "type": "address"
        }
      ],
      "stateMutability": "view",
      "type": "function"
    },
    {
      "inputs": [
        {
          "internalType": "string",
          "name": "username",
          "type": "string"
        },
        {
          "internalType": "string",
          "name": "donorName",
          "type": "string"
        },
        {
          "internalType": "string",
          "name": "message",
          "type": "string"
        }
      ],
      "name": "makeDonation",
      "outputs": [],
      "stateMutability": "payable",
      "type": "function"
    },
    {
      "inputs": [],
      "name": "minimumRequiredFeeUSD",
      "outputs": [
        {
          "internalType": "uint256",
          "name": "",
          "type": "uint256"
        }
      ],
      "stateMutability": "view",
      "type": "function"
    },
    {
      "inputs": [],
      "name": "owner",
      "outputs": [
        {
          "internalType": "address",
          "name": "",
          "type": "address"
        }
      ],
      "stateMutability": "view",
      "type": "function"
    },
    {
      "inputs": [],
      "name": "renounceOwnership",
      "outputs": [],
      "stateMutability": "nonpayable",
      "type": "function"
    },
    {
      "inputs": [
        {
          "internalType": "address",
          "name": "newOwner",
          "type": "address"
        }
      ],
      "name": "transferOwnership",
      "outputs": [],
      "stateMutability": "nonpayable",
      "type": "function"
    },
    {
      "inputs": [
        {
          "internalType": "uint256",
          "name": "_feePercentage",
          "type": "uint256"
        },
        {
          "internalType": "uint256",
          "name": "_minimumRequiredFeeUSD",
          "type": "uint256"
        }
      ],
      "name": "updateFeeSettings",
      "outputs": [],
      "stateMutability": "nonpayable",
      "type": "function"
    },
    {
      "inputs": [
        {
          "internalType": "string",
          "name": "username",
          "type": "string"
        },
        {
          "internalType": "string",
          "name": "description",
          "type": "string"
        },
        {
          "internalType": "string",
          "name": "profilePictureURL",
          "type": "string"
        },
        {
          "internalType": "uint256",
          "name": "minDonationUSD",
          "type": "uint256"
        }
      ],
      "name": "updateProfile",
      "outputs": [],
      "stateMutability": "nonpayable",
      "type": "function"
    },
    {
      "inputs": [
        {
          "internalType": "string",
          "name": "username",
          "type": "string"
        }
      ],
      "name": "withdrawDonations",
      "outputs": [],
      "stateMutability": "nonpayable",
      "type": "function"
    },
    {
      "inputs": [],
      "name": "withdrawFees",
      "outputs": [],
      "stateMutability": "nonpayable",
      "type": "function"
    }
  ],
  "transactionHash": "0x28f64418cda2309c41d5be885c5cf9988f82c1f72218b0d877a1f74e865268db",
  "args": [],
  "numDeployments": 7,
  "solcInputHash": "94ddc2c036596d92e0a2a516d2d95965",
  "bytecode": "0x608060405260006007556000600855600060095534801561001f57600080fd5b5061002933610054565b600180546001600160a01b031916735f4ec3df9cbd43714fe2740f5e3616155c5b84191790556100a4565b600080546001600160a01b038381166001600160a01b0319831681178455604051919092169283917f8be0079c531659141344cd1fd0a4f28419497f9722a3daafe3b4186f6b6457e09190a35050565b611b3c806100b36000396000f3fe6080604052600436106100fe5760003560e01c80638e15f47311610095578063d498455d11610064578063d498455d14610288578063edc27dd6146102b5578063f2fde38b146102c8578063f4a4adf0146102e8578063f6a77e4f1461030857600080fd5b80638e15f4731461021d578063a001ecdd14610232578063d30e1c9c14610248578063d44bad651461026857600080fd5b8063546f8203116100d1578063546f8203146101925780636af1eed9146101b2578063715018a6146101d65780638da5cb5b146101eb57600080fd5b80630b1fe784146101035780630de986931461012e578063476343ee1461015b5780634b04e7cd14610172575b600080fd5b34801561010f57600080fd5b50610118610328565b604051610125919061148f565b60405180910390f35b34801561013a57600080fd5b5061014e610149366004611594565b61061a565b60405161012591906115d1565b34801561016757600080fd5b506101706108b0565b005b34801561017e57600080fd5b5061017061018d3660046115eb565b610943565b34801561019e57600080fd5b506101706101ad36600461160d565b610993565b3480156101be57600080fd5b506101c860085481565b604051908152602001610125565b3480156101e257600080fd5b50610170610ae4565b3480156101f757600080fd5b506000546001600160a01b03165b6040516001600160a01b039091168152602001610125565b34801561022957600080fd5b50610d806101c8565b34801561023e57600080fd5b506101c860075481565b34801561025457600080fd5b506101c861026336600461169d565b610af8565b34801561027457600080fd5b50610205610283366004611594565b610b26565b34801561029457600080fd5b506102a86102a3366004611594565b610b57565b60405161012591906116b6565b6101706102c3366004611751565b610d0c565b3480156102d457600080fd5b506101706102e33660046117d9565b610f81565b3480156102f457600080fd5b5061017061030336600461160d565b610ffa565b34801561031457600080fd5b50610170610323366004611594565b6111a6565b6006546060906000600a821161033e5781610341565b600a5b905060008167ffffffffffffffff81111561035e5761035e6114f1565b6040519080825280602002602001820160405280156103ba57816020015b6103a76040518060800160405280606081526020016060815260200160608152602001600081525090565b81526020019060019003908161037c5790505b50905060005b82811015610612576002600660016103d88488611818565b6103e29190611818565b815481106103f2576103f2611831565b906000526020600020016040516104099190611881565b908152602001604051809103902060405180608001604052908160008201805461043290611847565b80601f016020809104026020016040519081016040528092919081815260200182805461045e90611847565b80156104ab5780601f10610480576101008083540402835291602001916104ab565b820191906000526020600020905b81548152906001019060200180831161048e57829003601f168201915b505050505081526020016001820180546104c490611847565b80601f01602080910402602001604051908101604052809291908181526020018280546104f090611847565b801561053d5780601f106105125761010080835404028352916020019161053d565b820191906000526020600020905b81548152906001019060200180831161052057829003601f168201915b5050505050815260200160028201805461055690611847565b80601f016020809104026020016040519081016040528092919081815260200182805461058290611847565b80156105cf5780601f106105a4576101008083540402835291602001916105cf565b820191906000526020600020905b8154815290600101906020018083116105b257829003601f168201915b505050505081526020016003820154815250508282815181106105f4576105f4611831565b6020026020010181905250808061060a906118f7565b9150506103c0565b509392505050565b6106456040518060800160405280606081526020016060815260200160608152602001600081525090565b6002826040516106559190611910565b9081526020016040518091039020600201805461067190611847565b90506000036106c05760405162461bcd60e51b8152602060048201526016602482015275141c9bd99a5b1948191bd95cc81b9bdd08195e1a5cdd60521b60448201526064015b60405180910390fd5b6002826040516106d09190611910565b90815260200160405180910390206040518060800160405290816000820180546106f990611847565b80601f016020809104026020016040519081016040528092919081815260200182805461072590611847565b80156107725780601f1061074757610100808354040283529160200191610772565b820191906000526020600020905b81548152906001019060200180831161075557829003601f168201915b5050505050815260200160018201805461078b90611847565b80601f01602080910402602001604051908101604052809291908181526020018280546107b790611847565b80156108045780601f106107d957610100808354040283529160200191610804565b820191906000526020600020905b8154815290600101906020018083116107e757829003601f168201915b5050505050815260200160028201805461081d90611847565b80601f016020809104026020016040519081016040528092919081815260200182805461084990611847565b80156108965780601f1061086b57610100808354040283529160200191610896565b820191906000526020600020905b81548152906001019060200180831161087957829003601f168201915b505050505081526020016003820154815250509050919050565b6108b8611336565b6000600954116109005760405162461bcd60e51b81526020600482015260136024820152724e6f206665657320746f20776974686472617760681b60448201526064016106b7565b600080546009546040516001600160a01b039092169281156108fc029290818181858888f1935050505015801561093b573d6000803e3d6000fd5b506000600955565b61094b611336565b6007829055600881905560408051838152602081018390527f5c6323bf1c2d7aaea2c091a4751c1c87af7f2864650c336507a77d0557af37a191015b60405180910390a15050565b336001600160a01b03166004856040516109ad9190611910565b908152604051908190036020019020546001600160a01b031614610a215760405162461bcd60e51b815260206004820152602560248201527f4e6f7420617574686f72697a656420746f2075706461746520746869732070726044820152646f66696c6560d81b60648201526084016106b7565b604051806080016040528085815260200184815260200183815260200182815250600285604051610a529190611910565b90815260405190819003602001902081518190610a6f908261197b565b5060208201516001820190610a84908261197b565b5060408201516002820190610a99908261197b565b50606082015181600301559050507f62ef9773503de4dcf411c8f6c4968707609c4fba31ea026b68cf87d942d2ff0484604051610ad69190611a3b565b60405180910390a150505050565b610aec611336565b610af66000611390565b565b6000610d8080600081610b1386670de0b6b3a7640000611a4e565b610b1d9190611a65565b95945050505050565b6000600482604051610b389190611910565b908152604051908190036020019020546001600160a01b031692915050565b6060600382604051610b699190611910565b9081526020016040518091039020805480602002602001604051908101604052809291908181526020016000905b82821015610d015783829060005260206000209060040201604051806080016040529081600082018054610bca90611847565b80601f0160208091040260200160405190810160405280929190818152602001828054610bf690611847565b8015610c435780601f10610c1857610100808354040283529160200191610c43565b820191906000526020600020905b815481529060010190602001808311610c2657829003601f168201915b50505050508152602001600182018054610c5c90611847565b80601f0160208091040260200160405190810160405280929190818152602001828054610c8890611847565b8015610cd55780601f10610caa57610100808354040283529160200191610cd5565b820191906000526020600020905b815481529060010190602001808311610cb857829003601f168201915b505050505081526020016002820154815260200160038201548152505081526020019060010190610b97565b505050509050919050565b6000610d38600285604051610d219190611910565b908152602001604051809103902060030154610af8565b905080341015610d955760405162461bcd60e51b815260206004820152602260248201527f446f6e6174696f6e2062656c6f77206d696e696d756d20726571756972656d656044820152611b9d60f21b60648201526084016106b7565b6000606460075434610da79190611a4e565b610db19190611a65565b90506000610dc0600854610af8565b905080821015610dce578091505b8160096000828254610de09190611a87565b90915550839050610df18334611818565b1015610e5c5760405162461bcd60e51b815260206004820152603460248201527f4e657420646f6e6174696f6e20616674657220666565732069732062656c6f77604482015273081b5a5b9a5b5d5b481c995c5d5a5c995b595b9d60621b60648201526084016106b7565b600386604051610e6c9190611910565b908152602001604051809103902060405180608001604052808781526020018681526020018434610e9d9190611818565b8152426020918201528254600181018455600093845292208151919260040201908190610eca908261197b565b5060208201516001820190610edf908261197b565b5060408201516002820155606090910151600390910155610f008234611818565b600587604051610f109190611910565b90815260200160405180910390206000828254610f2d9190611a87565b909155507f5e0c1190239814ed6713490057a0d89ee21a51764602eff20db26dd921871d8e90508686610f608534611818565b87604051610f719493929190611a9a565b60405180910390a1505050505050565b610f89611336565b6001600160a01b038116610fee5760405162461bcd60e51b815260206004820152602660248201527f4f776e61626c653a206e6577206f776e657220697320746865207a65726f206160448201526564647265737360d01b60648201526084016106b7565b610ff781611390565b50565b60006001600160a01b03166004856040516110159190611910565b908152604051908190036020019020546001600160a01b0316146110745760405162461bcd60e51b81526020600482015260166024820152752ab9b2b93730b6b29030b63932b0b23c903a30b5b2b760511b60448201526064016106b7565b6040518060800160405280858152602001848152602001838152602001828152506002856040516110a59190611910565b908152604051908190036020019020815181906110c2908261197b565b50602082015160018201906110d7908261197b565b50604082015160028201906110ec908261197b565b50606082015181600301559050503360048560405161110b9190611910565b90815260405190819003602001902080546001600160a01b03929092166001600160a01b0319909216919091179055600680546001810182556000919091527ff652222313e28459528d920b65115c16c04f3efc82aaedc97be59f3f377c0d3f01611176858261197b565b507f62ef9773503de4dcf411c8f6c4968707609c4fba31ea026b68cf87d942d2ff0484604051610ad69190611a3b565b336001600160a01b03166004826040516111c09190611910565b908152604051908190036020019020546001600160a01b0316146112405760405162461bcd60e51b815260206004820152603160248201527f4e6f7420617574686f72697a656420746f2077697468647261772066756e647360448201527020666f7220746869732070726f66696c6560781b60648201526084016106b7565b60006005826040516112529190611910565b9081526020016040518091039020549050600081116112b35760405162461bcd60e51b815260206004820152601860248201527f4e6f20646f6e6174696f6e7320746f207769746864726177000000000000000060448201526064016106b7565b604051339082156108fc029083906000818181858888f193505050501580156112e0573d6000803e3d6000fd5b5060006005836040516112f39190611910565b9081526020016040518091039020819055507f4467463b50ded51827ecf2a001448363831d6be8bd8d6d98e593abb1f0d2cb1e8282604051610987929190611ae4565b6000546001600160a01b03163314610af65760405162461bcd60e51b815260206004820181905260248201527f4f776e61626c653a2063616c6c6572206973206e6f7420746865206f776e657260448201526064016106b7565b600080546001600160a01b038381166001600160a01b0319831681178455604051919092169283917f8be0079c531659141344cd1fd0a4f28419497f9722a3daafe3b4186f6b6457e09190a35050565b60005b838110156113fb5781810151838201526020016113e3565b50506000910152565b6000815180845261141c8160208601602086016113e0565b601f01601f19169290920160200192915050565b60008151608084526114456080850182611404565b90506020830151848203602086015261145e8282611404565b915050604083015184820360408601526114788282611404565b915050606083015160608501528091505092915050565b6000602080830181845280855180835260408601915060408160051b870101925083870160005b828110156114e457603f198886030184526114d2858351611430565b945092850192908501906001016114b6565b5092979650505050505050565b634e487b7160e01b600052604160045260246000fd5b600082601f83011261151857600080fd5b813567ffffffffffffffff80821115611533576115336114f1565b604051601f8301601f19908116603f0116810190828211818310171561155b5761155b6114f1565b8160405283815286602085880101111561157457600080fd5b836020870160208301376000602085830101528094505050505092915050565b6000602082840312156115a657600080fd5b813567ffffffffffffffff8111156115bd57600080fd5b6115c984828501611507565b949350505050565b6020815260006115e46020830184611430565b9392505050565b600080604083850312156115fe57600080fd5b50508035926020909101359150565b6000806000806080858703121561162357600080fd5b843567ffffffffffffffff8082111561163b57600080fd5b61164788838901611507565b9550602087013591508082111561165d57600080fd5b61166988838901611507565b9450604087013591508082111561167f57600080fd5b5061168c87828801611507565b949793965093946060013593505050565b6000602082840312156116af57600080fd5b5035919050565b60006020808301818452808551808352604092508286019150828160051b87010184880160005b8381101561174357603f1989840301855281516080815181865261170382870182611404565b915050888201518582038a87015261171b8282611404565b838a0151878b01526060938401519390960192909252505093860193908601906001016116dd565b509098975050505050505050565b60008060006060848603121561176657600080fd5b833567ffffffffffffffff8082111561177e57600080fd5b61178a87838801611507565b945060208601359150808211156117a057600080fd5b6117ac87838801611507565b935060408601359150808211156117c257600080fd5b506117cf86828701611507565b9150509250925092565b6000602082840312156117eb57600080fd5b81356001600160a01b03811681146115e457600080fd5b634e487b7160e01b600052601160045260246000fd5b8181038181111561182b5761182b611802565b92915050565b634e487b7160e01b600052603260045260246000fd5b600181811c9082168061185b57607f821691505b60208210810361187b57634e487b7160e01b600052602260045260246000fd5b50919050565b600080835461188f81611847565b600182811680156118a757600181146118bc576118eb565b60ff19841687528215158302870194506118eb565b8760005260208060002060005b858110156118e25781548a8201529084019082016118c9565b50505082870194505b50929695505050505050565b60006001820161190957611909611802565b5060010190565b600082516119228184602087016113e0565b9190910192915050565b601f82111561197657600081815260208120601f850160051c810160208610156119535750805b601f850160051c820191505b818110156119725782815560010161195f565b5050505b505050565b815167ffffffffffffffff811115611995576119956114f1565b6119a9816119a38454611847565b8461192c565b602080601f8311600181146119de57600084156119c65750858301515b600019600386901b1c1916600185901b178555611972565b600085815260208120601f198616915b82811015611a0d578886015182559484019460019091019084016119ee565b5085821015611a2b5787850151600019600388901b60f8161c191681555b5050505050600190811b01905550565b6020815260006115e46020830184611404565b808202811582820484141761182b5761182b611802565b600082611a8257634e487b7160e01b600052601260045260246000fd5b500490565b8082018082111561182b5761182b611802565b608081526000611aad6080830187611404565b8281036020840152611abf8187611404565b90508460408401528281036060840152611ad98185611404565b979650505050505050565b604081526000611af76040830185611404565b9050826020830152939250505056fea2646970667358221220e190b45e7d22d99c9603b9ecde3163c2a0bd8d7c2f97d7ed7889ede50372c32564736f6c63430008110033",
  "devdoc": {
    "author": "glebshkut",
    "kind": "dev",
    "methods": {
      "owner()": {
        "details": "Returns the address of the current owner."
      },
      "renounceOwnership()": {
        "details": "Leaves the contract without owner. It will not be possible to call `onlyOwner` functions anymore. Can only be called by the current owner. NOTE: Renouncing ownership will leave the contract without an owner, thereby removing any functionality that is only available to the owner."
      },
      "transferOwnership(address)": {
        "details": "Transfers ownership of the contract to a new account (`newOwner`). Can only be called by the current owner."
      }
    },
    "version": 1
  },
  "userdoc": {
    "kind": "user",
    "methods": {},
    "notice": "A smart contract that allows making donations to creators. It also allows the owner to withdraw the Ether in the contract",
    "version": 1
  },
  "storageLayout": {
    "storage": [
      {
        "astId": 7,
        "contract": "contracts/CryptoPatrons.sol:CryptoPatrons",
        "label": "_owner",
        "offset": 0,
        "slot": "0",
        "type": "t_address"
      },
      {
        "astId": 270,
        "contract": "contracts/CryptoPatrons.sol:CryptoPatrons",
        "label": "priceFeed",
        "offset": 0,
        "slot": "1",
        "type": "t_contract(AggregatorV3Interface)258"
      },
      {
        "astId": 337,
        "contract": "contracts/CryptoPatrons.sol:CryptoPatrons",
        "label": "_profiles",
        "offset": 0,
        "slot": "2",
        "type": "t_mapping(t_string_memory_ptr,t_struct(CreatorProfile)289_storage)"
      },
      {
        "astId": 343,
        "contract": "contracts/CryptoPatrons.sol:CryptoPatrons",
        "label": "_donations",
        "offset": 0,
        "slot": "3",
        "type": "t_mapping(t_string_memory_ptr,t_array(t_struct(Donation)298_storage)dyn_storage)"
      },
      {
        "astId": 347,
        "contract": "contracts/CryptoPatrons.sol:CryptoPatrons",
        "label": "_profileOwners",
        "offset": 0,
        "slot": "4",
        "type": "t_mapping(t_string_memory_ptr,t_address)"
      },
      {
        "astId": 351,
        "contract": "contracts/CryptoPatrons.sol:CryptoPatrons",
        "label": "_donationsAmount",
        "offset": 0,
        "slot": "5",
        "type": "t_mapping(t_string_memory_ptr,t_uint256)"
      },
      {
        "astId": 354,
        "contract": "contracts/CryptoPatrons.sol:CryptoPatrons",
        "label": "_profileUsernames",
        "offset": 0,
        "slot": "6",
        "type": "t_array(t_string_storage)dyn_storage"
      },
      {
        "astId": 357,
        "contract": "contracts/CryptoPatrons.sol:CryptoPatrons",
        "label": "feePercentage",
        "offset": 0,
        "slot": "7",
        "type": "t_uint256"
      },
      {
        "astId": 360,
        "contract": "contracts/CryptoPatrons.sol:CryptoPatrons",
        "label": "minimumRequiredFeeUSD",
        "offset": 0,
        "slot": "8",
        "type": "t_uint256"
      },
      {
        "astId": 363,
        "contract": "contracts/CryptoPatrons.sol:CryptoPatrons",
        "label": "collectedFees",
        "offset": 0,
        "slot": "9",
        "type": "t_uint256"
      }
    ],
    "types": {
      "t_address": {
        "encoding": "inplace",
        "label": "address",
        "numberOfBytes": "20"
      },
      "t_array(t_string_storage)dyn_storage": {
        "base": "t_string_storage",
        "encoding": "dynamic_array",
        "label": "string[]",
        "numberOfBytes": "32"
      },
      "t_array(t_struct(Donation)298_storage)dyn_storage": {
        "base": "t_struct(Donation)298_storage",
        "encoding": "dynamic_array",
        "label": "struct CryptoPatrons.Donation[]",
        "numberOfBytes": "32"
      },
      "t_contract(AggregatorV3Interface)258": {
        "encoding": "inplace",
        "label": "contract AggregatorV3Interface",
        "numberOfBytes": "20"
      },
      "t_mapping(t_string_memory_ptr,t_address)": {
        "encoding": "mapping",
        "key": "t_string_memory_ptr",
        "label": "mapping(string => address)",
        "numberOfBytes": "32",
        "value": "t_address"
      },
      "t_mapping(t_string_memory_ptr,t_array(t_struct(Donation)298_storage)dyn_storage)": {
        "encoding": "mapping",
        "key": "t_string_memory_ptr",
        "label": "mapping(string => struct CryptoPatrons.Donation[])",
        "numberOfBytes": "32",
        "value": "t_array(t_struct(Donation)298_storage)dyn_storage"
      },
      "t_mapping(t_string_memory_ptr,t_struct(CreatorProfile)289_storage)": {
        "encoding": "mapping",
        "key": "t_string_memory_ptr",
        "label": "mapping(string => struct CryptoPatrons.CreatorProfile)",
        "numberOfBytes": "32",
        "value": "t_struct(CreatorProfile)289_storage"
      },
      "t_mapping(t_string_memory_ptr,t_uint256)": {
        "encoding": "mapping",
        "key": "t_string_memory_ptr",
        "label": "mapping(string => uint256)",
        "numberOfBytes": "32",
        "value": "t_uint256"
      },
      "t_string_memory_ptr": {
        "encoding": "bytes",
        "label": "string",
        "numberOfBytes": "32"
      },
      "t_string_storage": {
        "encoding": "bytes",
        "label": "string",
        "numberOfBytes": "32"
      },
      "t_struct(CreatorProfile)289_storage": {
        "encoding": "inplace",
        "label": "struct CryptoPatrons.CreatorProfile",
        "members": [
          {
            "astId": 282,
            "contract": "contracts/CryptoPatrons.sol:CryptoPatrons",
            "label": "username",
            "offset": 0,
            "slot": "0",
            "type": "t_string_storage"
          },
          {
            "astId": 284,
            "contract": "contracts/CryptoPatrons.sol:CryptoPatrons",
            "label": "description",
            "offset": 0,
            "slot": "1",
            "type": "t_string_storage"
          },
          {
            "astId": 286,
            "contract": "contracts/CryptoPatrons.sol:CryptoPatrons",
            "label": "profilePictureURL",
            "offset": 0,
            "slot": "2",
            "type": "t_string_storage"
          },
          {
            "astId": 288,
            "contract": "contracts/CryptoPatrons.sol:CryptoPatrons",
            "label": "minDonationUSD",
            "offset": 0,
            "slot": "3",
            "type": "t_uint256"
          }
        ],
        "numberOfBytes": "128"
      },
      "t_struct(Donation)298_storage": {
        "encoding": "inplace",
        "label": "struct CryptoPatrons.Donation",
        "members": [
          {
            "astId": 291,
            "contract": "contracts/CryptoPatrons.sol:CryptoPatrons",
            "label": "donorName",
            "offset": 0,
            "slot": "0",
            "type": "t_string_storage"
          },
          {
            "astId": 293,
            "contract": "contracts/CryptoPatrons.sol:CryptoPatrons",
            "label": "message",
            "offset": 0,
            "slot": "1",
            "type": "t_string_storage"
          },
          {
            "astId": 295,
            "contract": "contracts/CryptoPatrons.sol:CryptoPatrons",
            "label": "amount",
            "offset": 0,
            "slot": "2",
            "type": "t_uint256"
          },
          {
            "astId": 297,
            "contract": "contracts/CryptoPatrons.sol:CryptoPatrons",
            "label": "timestamp",
            "offset": 0,
            "slot": "3",
            "type": "t_uint256"
          }
        ],
        "numberOfBytes": "128"
      },
      "t_uint256": {
        "encoding": "inplace",
        "label": "uint256",
        "numberOfBytes": "32"
      }
    }
  }
}